{
  "_format": "hh-sol-artifact-1",
  "contractName": "CourseFactory",
  "sourceName": "contracts/CourseFactory.sol",
  "abi": [
    {
      "inputs": [],
      "stateMutability": "nonpayable",
      "type": "constructor"
    },
    {
      "inputs": [
        {
          "internalType": "uint256",
          "name": "",
          "type": "uint256"
        }
      ],
      "name": "allContracts",
      "outputs": [
        {
          "internalType": "address",
          "name": "",
          "type": "address"
        }
      ],
      "stateMutability": "view",
      "type": "function"
    },
    {
      "inputs": [
        {
          "internalType": "uint256",
          "name": "coursePrice",
          "type": "uint256"
        },
        {
          "internalType": "string",
          "name": "url",
          "type": "string"
        }
      ],
      "name": "createLesson",
      "outputs": [],
      "stateMutability": "nonpayable",
      "type": "function"
    },
    {
      "inputs": [],
      "name": "getContracts",
      "outputs": [
        {
          "internalType": "address[]",
          "name": "",
          "type": "address[]"
        }
      ],
      "stateMutability": "view",
      "type": "function"
    },
    {
      "inputs": [
        {
          "internalType": "address",
          "name": "_ownerAddress",
          "type": "address"
        }
      ],
      "name": "getCreatorCourse",
      "outputs": [
        {
          "internalType": "address",
          "name": "",
          "type": "address"
        }
      ],
      "stateMutability": "view",
      "type": "function"
    },
    {
      "inputs": [
        {
          "internalType": "address",
          "name": "",
          "type": "address"
        }
      ],
      "name": "ownerContracts",
      "outputs": [
        {
          "internalType": "address",
          "name": "",
          "type": "address"
        }
      ],
      "stateMutability": "view",
      "type": "function"
    }
  ],
  "bytecode": "0x608060405234801561001057600080fd5b5033600160006101000a81548173ffffffffffffffffffffffffffffffffffffffff021916908373ffffffffffffffffffffffffffffffffffffffff160217905550613e36806100616000396000f3fe60806040523480156200001157600080fd5b50600436106200005e5760003560e01c80634b6b89d31462000063578063743ea58f1462000083578063c3a2a93a14620000b9578063e54e26b914620000db578063f1860d7b1462000111575b600080fd5b6200008160048036038101906200007b919062000624565b62000147565b005b620000a160048036038101906200009b9190620005cc565b620002ec565b604051620000b091906200079d565b60405180910390f35b620000c362000355565b604051620000d29190620007fe565b60405180910390f35b620000f96004803603810190620000f39190620005f8565b620003e5565b6040516200010891906200079d565b60405180910390f35b6200012f6004803603810190620001299190620005cc565b62000425565b6040516200013e91906200079d565b60405180910390f35b60003383836040516200015a906200051e565b6200016893929190620007ba565b604051809103906000f08015801562000185573d6000803e3d6000fd5b509050620001938162000458565b600073ffffffffffffffffffffffffffffffffffffffff168173ffffffffffffffffffffffffffffffffffffffff16141562000206576040517f08c379a0000000000000000000000000000000000000000000000000000000008152600401620001fd9062000822565b60405180910390fd5b6000819080600181540180825580915050600190039060005260206000200160009091909190916101000a81548173ffffffffffffffffffffffffffffffffffffffff021916908373ffffffffffffffffffffffffffffffffffffffff16021790555080600260003373ffffffffffffffffffffffffffffffffffffffff1673ffffffffffffffffffffffffffffffffffffffff16815260200190815260200160002060006101000a81548173ffffffffffffffffffffffffffffffffffffffff021916908373ffffffffffffffffffffffffffffffffffffffff160217905550505050565b6000600260008373ffffffffffffffffffffffffffffffffffffffff1673ffffffffffffffffffffffffffffffffffffffff16815260200190815260200160002060009054906101000a900473ffffffffffffffffffffffffffffffffffffffff169050919050565b60606000805480602002602001604051908101604052809291908181526020018280548015620003db57602002820191906000526020600020905b8160009054906101000a900473ffffffffffffffffffffffffffffffffffffffff1673ffffffffffffffffffffffffffffffffffffffff168152602001906001019080831162000390575b5050505050905090565b60008181548110620003f657600080fd5b906000526020600020016000915054906101000a900473ffffffffffffffffffffffffffffffffffffffff1681565b60026020528060005260406000206000915054906101000a900473ffffffffffffffffffffffffffffffffffffffff1681565b620004f2816040516024016200046f91906200079d565b6040516020818303038152906040527f2c2ecbc2000000000000000000000000000000000000000000000000000000007bffffffffffffffffffffffffffffffffffffffffffffffffffffffff19166020820180517bffffffffffffffffffffffffffffffffffffffffffffffffffffffff8381831617835250505050620004f5565b50565b60008151905060006a636f6e736f6c652e6c6f679050602083016000808483855afa5050505050565b61338c8062000a7583390190565b6000620005436200053d846200086d565b62000844565b9050828152602081018484840111156200055c57600080fd5b6200056984828562000936565b509392505050565b600081359050620005828162000a40565b92915050565b600082601f8301126200059a57600080fd5b8135620005ac8482602086016200052c565b91505092915050565b600081359050620005c68162000a5a565b92915050565b600060208284031215620005df57600080fd5b6000620005ef8482850162000571565b91505092915050565b6000602082840312156200060b57600080fd5b60006200061b84828501620005b5565b91505092915050565b600080604083850312156200063857600080fd5b60006200064885828601620005b5565b925050602083013567ffffffffffffffff8111156200066657600080fd5b620006748582860162000588565b9150509250929050565b60006200068c838362000698565b60208301905092915050565b620006a381620008f8565b82525050565b620006b481620008f8565b82525050565b6000620006c782620008b3565b620006d38185620008d6565b9350620006e083620008a3565b8060005b8381101562000717578151620006fb88826200067e565b97506200070883620008c9565b925050600181019050620006e4565b5085935050505092915050565b60006200073182620008be565b6200073d8185620008e7565b93506200074f81856020860162000945565b6200075a81620009e0565b840191505092915050565b600062000774602c83620008e7565b91506200078182620009f1565b604082019050919050565b62000797816200092c565b82525050565b6000602082019050620007b46000830184620006a9565b92915050565b6000606082019050620007d16000830186620006a9565b620007e060208301856200078c565b8181036040830152620007f4818462000724565b9050949350505050565b600060208201905081810360008301526200081a8184620006ba565b905092915050565b600060208201905081810360008301526200083d8162000765565b9050919050565b60006200085062000863565b90506200085e82826200097b565b919050565b6000604051905090565b600067ffffffffffffffff8211156200088b576200088a620009b1565b5b6200089682620009e0565b9050602081019050919050565b6000819050602082019050919050565b600081519050919050565b600081519050919050565b6000602082019050919050565b600082825260208201905092915050565b600082825260208201905092915050565b600062000905826200090c565b9050919050565b600073ffffffffffffffffffffffffffffffffffffffff82169050919050565b6000819050919050565b82818337600083830152505050565b60005b838110156200096557808201518184015260208101905062000948565b8381111562000975576000848401525b50505050565b6200098682620009e0565b810181811067ffffffffffffffff82111715620009a857620009a7620009b1565b5b80604052505050565b7f4e487b7100000000000000000000000000000000000000000000000000000000600052604160045260246000fd5b6000601f19601f8301169050919050565b7f54686572652077617320616e206973737565207768696c65206372656174696e60008201527f672074686520636f757273650000000000000000000000000000000000000000602082015250565b62000a4b81620008f8565b811462000a5757600080fd5b50565b62000a65816200092c565b811462000a7157600080fd5b5056fe60806040523480156200001157600080fd5b506040516200338c3803806200338c833981810160405281019062000037919062000207565b8062000049816200009b60201b60201c565b5082600360006101000a81548173ffffffffffffffffffffffffffffffffffffffff021916908373ffffffffffffffffffffffffffffffffffffffff1602179055508160048190555050505062000458565b8060029080519060200190620000b3929190620000b7565b5050565b828054620000c59062000349565b90600052602060002090601f016020900481019282620000e9576000855562000135565b82601f106200010457805160ff191683800117855562000135565b8280016001018555821562000135579182015b828111156200013457825182559160200191906001019062000117565b5b50905062000144919062000148565b5090565b5b808211156200016357600081600090555060010162000149565b5090565b60006200017e62000178846200029f565b62000276565b9050828152602081018484840111156200019757600080fd5b620001a484828562000313565b509392505050565b600081519050620001bd8162000424565b92915050565b600082601f830112620001d557600080fd5b8151620001e784826020860162000167565b91505092915050565b60008151905062000201816200043e565b92915050565b6000806000606084860312156200021d57600080fd5b60006200022d86828701620001ac565b93505060206200024086828701620001f0565b925050604084015167ffffffffffffffff8111156200025e57600080fd5b6200026c86828701620001c3565b9150509250925092565b60006200028262000295565b90506200029082826200037f565b919050565b6000604051905090565b600067ffffffffffffffff821115620002bd57620002bc620003e4565b5b620002c88262000413565b9050602081019050919050565b6000620002e282620002e9565b9050919050565b600073ffffffffffffffffffffffffffffffffffffffff82169050919050565b6000819050919050565b60005b838110156200033357808201518184015260208101905062000316565b8381111562000343576000848401525b50505050565b600060028204905060018216806200036257607f821691505b60208210811415620003795762000378620003b5565b5b50919050565b6200038a8262000413565b810181811067ffffffffffffffff82111715620003ac57620003ab620003e4565b5b80604052505050565b7f4e487b7100000000000000000000000000000000000000000000000000000000600052602260045260246000fd5b7f4e487b7100000000000000000000000000000000000000000000000000000000600052604160045260246000fd5b6000601f19601f8301169050919050565b6200042f81620002d5565b81146200043b57600080fd5b50565b620004498162000309565b81146200045557600080fd5b50565b612f2480620004686000396000f3fe6080604052600436106100e05760003560e01c8063827cc4521161007f578063d321fe2911610059578063d321fe29146102da578063d5b0197914610305578063e985e9c51461030f578063f242432a1461034c576100e7565b8063827cc4521461025d578063a22cb46514610286578063aa8c217c146102af576100e7565b80632eb2c2d6116100bb5780632eb2c2d6146101a35780634e1273f4146101cc5780635c320516146102095780637bf6df9114610232576100e7565b8062fdd58e146100ec57806301ffc9a7146101295780630e89341c14610166576100e7565b366100e757005b600080fd5b3480156100f857600080fd5b50610113600480360381019061010e9190611d7b565b610375565b604051610120919061254a565b60405180910390f35b34801561013557600080fd5b50610150600480360381019061014b9190611e23565b61043e565b60405161015d919061230d565b60405180910390f35b34801561017257600080fd5b5061018d60048036038101906101889190611e75565b610520565b60405161019a9190612328565b60405180910390f35b3480156101af57600080fd5b506101ca60048036038101906101c59190611bf1565b6105b4565b005b3480156101d857600080fd5b506101f360048036038101906101ee9190611db7565b610655565b60405161020091906122b4565b60405180910390f35b34801561021557600080fd5b50610230600480360381019061022b9190611e75565b610806565b005b34801561023e57600080fd5b506102476108a0565b604051610254919061254a565b60405180910390f35b34801561026957600080fd5b50610284600480360381019061027f9190611e75565b6108a5565b005b34801561029257600080fd5b506102ad60048036038101906102a89190611d3f565b6109f4565b005b3480156102bb57600080fd5b506102c4610a0a565b6040516102d1919061254a565b60405180910390f35b3480156102e657600080fd5b506102ef610a10565b6040516102fc919061254a565b60405180910390f35b61030d610a1a565b005b34801561031b57600080fd5b5061033660048036038101906103319190611bb5565b610a7d565b604051610343919061230d565b60405180910390f35b34801561035857600080fd5b50610373600480360381019061036e9190611cb0565b610b11565b005b60008073ffffffffffffffffffffffffffffffffffffffff168373ffffffffffffffffffffffffffffffffffffffff1614156103e6576040517f08c379a00000000000000000000000000000000000000000000000000000000081526004016103dd9061238a565b60405180910390fd5b60008083815260200190815260200160002060008473ffffffffffffffffffffffffffffffffffffffff1673ffffffffffffffffffffffffffffffffffffffff16815260200190815260200160002054905092915050565b60007fd9b67a26000000000000000000000000000000000000000000000000000000007bffffffffffffffffffffffffffffffffffffffffffffffffffffffff1916827bffffffffffffffffffffffffffffffffffffffffffffffffffffffff1916148061050957507f0e89341c000000000000000000000000000000000000000000000000000000007bffffffffffffffffffffffffffffffffffffffffffffffffffffffff1916827bffffffffffffffffffffffffffffffffffffffffffffffffffffffff1916145b80610519575061051882610bb2565b5b9050919050565b60606002805461052f906127b9565b80601f016020809104026020016040519081016040528092919081815260200182805461055b906127b9565b80156105a85780601f1061057d576101008083540402835291602001916105a8565b820191906000526020600020905b81548152906001019060200180831161058b57829003601f168201915b50505050509050919050565b6105bc610c1c565b73ffffffffffffffffffffffffffffffffffffffff168573ffffffffffffffffffffffffffffffffffffffff1614806106025750610601856105fc610c1c565b610a7d565b5b610641576040517f08c379a00000000000000000000000000000000000000000000000000000000081526004016106389061246a565b60405180910390fd5b61064e8585858585610c24565b5050505050565b6060815183511461069b576040517f08c379a0000000000000000000000000000000000000000000000000000000008152600401610692906124ca565b60405180910390fd5b6000835167ffffffffffffffff8111156106de577f4e487b7100000000000000000000000000000000000000000000000000000000600052604160045260246000fd5b60405190808252806020026020018201604052801561070c5781602001602082028036833780820191505090505b50905060005b84518110156107fb576107a5858281518110610757577f4e487b7100000000000000000000000000000000000000000000000000000000600052603260045260246000fd5b6020026020010151858381518110610798577f4e487b7100000000000000000000000000000000000000000000000000000000600052603260045260246000fd5b6020026020010151610375565b8282815181106107de577f4e487b7100000000000000000000000000000000000000000000000000000000600052603260045260246000fd5b602002602001018181525050806107f49061281c565b9050610712565b508091505092915050565b600360009054906101000a900473ffffffffffffffffffffffffffffffffffffffff1673ffffffffffffffffffffffffffffffffffffffff163373ffffffffffffffffffffffffffffffffffffffff1614610896576040517f08c379a000000000000000000000000000000000000000000000000000000000815260040161088d906123ea565b60405180910390fd5b8060048190555050565b600081565b600360009054906101000a900473ffffffffffffffffffffffffffffffffffffffff1673ffffffffffffffffffffffffffffffffffffffff163373ffffffffffffffffffffffffffffffffffffffff1614610935576040517f08c379a000000000000000000000000000000000000000000000000000000000815260040161092c906123aa565b60405180910390fd5b804711610977576040517f08c379a000000000000000000000000000000000000000000000000000000000815260040161096e906123ca565b60405180910390fd5b60003373ffffffffffffffffffffffffffffffffffffffff166108fc839081150290604051600060405180830381858888f193505050509050806109f0576040517f08c379a00000000000000000000000000000000000000000000000000000000081526004016109e79061242a565b60405180910390fd5b5050565b610a066109ff610c1c565b8383610f84565b5050565b60045481565b6000600454905090565b6004543411610a5e576040517f08c379a0000000000000000000000000000000000000000000000000000000008152600401610a559061252a565b60405180910390fd5b610a7b3360006001604051806020016040528060008152506110f1565b565b6000600160008473ffffffffffffffffffffffffffffffffffffffff1673ffffffffffffffffffffffffffffffffffffffff16815260200190815260200160002060008373ffffffffffffffffffffffffffffffffffffffff1673ffffffffffffffffffffffffffffffffffffffff16815260200190815260200160002060009054906101000a900460ff16905092915050565b610b19610c1c565b73ffffffffffffffffffffffffffffffffffffffff168573ffffffffffffffffffffffffffffffffffffffff161480610b5f5750610b5e85610b59610c1c565b610a7d565b5b610b9e576040517f08c379a0000000000000000000000000000000000000000000000000000000008152600401610b959061240a565b60405180910390fd5b610bab8585858585611287565b5050505050565b60007f01ffc9a7000000000000000000000000000000000000000000000000000000007bffffffffffffffffffffffffffffffffffffffffffffffffffffffff1916827bffffffffffffffffffffffffffffffffffffffffffffffffffffffff1916149050919050565b600033905090565b8151835114610c68576040517f08c379a0000000000000000000000000000000000000000000000000000000008152600401610c5f906124ea565b60405180910390fd5b600073ffffffffffffffffffffffffffffffffffffffff168473ffffffffffffffffffffffffffffffffffffffff161415610cd8576040517f08c379a0000000000000000000000000000000000000000000000000000000008152600401610ccf9061244a565b60405180910390fd5b6000610ce2610c1c565b9050610cf2818787878787611509565b60005b8451811015610eef576000858281518110610d39577f4e487b7100000000000000000000000000000000000000000000000000000000600052603260045260246000fd5b602002602001015190506000858381518110610d7e577f4e487b7100000000000000000000000000000000000000000000000000000000600052603260045260246000fd5b60200260200101519050600080600084815260200190815260200160002060008b73ffffffffffffffffffffffffffffffffffffffff1673ffffffffffffffffffffffffffffffffffffffff16815260200190815260200160002054905081811015610e1f576040517f08c379a0000000000000000000000000000000000000000000000000000000008152600401610e169061248a565b60405180910390fd5b81810360008085815260200190815260200160002060008c73ffffffffffffffffffffffffffffffffffffffff1673ffffffffffffffffffffffffffffffffffffffff168152602001908152602001600020819055508160008085815260200190815260200160002060008b73ffffffffffffffffffffffffffffffffffffffff1673ffffffffffffffffffffffffffffffffffffffff1681526020019081526020016000206000828254610ed491906126ad565b9250508190555050505080610ee89061281c565b9050610cf5565b508473ffffffffffffffffffffffffffffffffffffffff168673ffffffffffffffffffffffffffffffffffffffff168273ffffffffffffffffffffffffffffffffffffffff167f4a39dc06d4c0dbc64b70af90fd698a233a518aa5d07e595d983b8c0526c8f7fb8787604051610f669291906122d6565b60405180910390a4610f7c818787878787611511565b505050505050565b8173ffffffffffffffffffffffffffffffffffffffff168373ffffffffffffffffffffffffffffffffffffffff161415610ff3576040517f08c379a0000000000000000000000000000000000000000000000000000000008152600401610fea906124aa565b60405180910390fd5b80600160008573ffffffffffffffffffffffffffffffffffffffff1673ffffffffffffffffffffffffffffffffffffffff16815260200190815260200160002060008473ffffffffffffffffffffffffffffffffffffffff1673ffffffffffffffffffffffffffffffffffffffff16815260200190815260200160002060006101000a81548160ff0219169083151502179055508173ffffffffffffffffffffffffffffffffffffffff168373ffffffffffffffffffffffffffffffffffffffff167f17307eab39ab6107e8899845ad3d59bd9653f200f220920489ca2b5937696c31836040516110e4919061230d565b60405180910390a3505050565b600073ffffffffffffffffffffffffffffffffffffffff168473ffffffffffffffffffffffffffffffffffffffff161415611161576040517f08c379a00000000000000000000000000000000000000000000000000000000081526004016111589061250a565b60405180910390fd5b600061116b610c1c565b905061118c8160008761117d886116f8565b611186886116f8565b87611509565b8260008086815260200190815260200160002060008773ffffffffffffffffffffffffffffffffffffffff1673ffffffffffffffffffffffffffffffffffffffff16815260200190815260200160002060008282546111eb91906126ad565b925050819055508473ffffffffffffffffffffffffffffffffffffffff16600073ffffffffffffffffffffffffffffffffffffffff168273ffffffffffffffffffffffffffffffffffffffff167fc3d58168c5ae7397731d063d5bbf3d657854427343f4c083240f7aacaa2d0f628787604051611269929190612565565b60405180910390a4611280816000878787876117be565b5050505050565b600073ffffffffffffffffffffffffffffffffffffffff168473ffffffffffffffffffffffffffffffffffffffff1614156112f7576040517f08c379a00000000000000000000000000000000000000000000000000000000081526004016112ee9061244a565b60405180910390fd5b6000611301610c1c565b9050611321818787611312886116f8565b61131b886116f8565b87611509565b600080600086815260200190815260200160002060008873ffffffffffffffffffffffffffffffffffffffff1673ffffffffffffffffffffffffffffffffffffffff168152602001908152602001600020549050838110156113b8576040517f08c379a00000000000000000000000000000000000000000000000000000000081526004016113af9061248a565b60405180910390fd5b83810360008087815260200190815260200160002060008973ffffffffffffffffffffffffffffffffffffffff1673ffffffffffffffffffffffffffffffffffffffff168152602001908152602001600020819055508360008087815260200190815260200160002060008873ffffffffffffffffffffffffffffffffffffffff1673ffffffffffffffffffffffffffffffffffffffff168152602001908152602001600020600082825461146d91906126ad565b925050819055508573ffffffffffffffffffffffffffffffffffffffff168773ffffffffffffffffffffffffffffffffffffffff168373ffffffffffffffffffffffffffffffffffffffff167fc3d58168c5ae7397731d063d5bbf3d657854427343f4c083240f7aacaa2d0f6288886040516114ea929190612565565b60405180910390a46115008288888888886117be565b50505050505050565b505050505050565b6115308473ffffffffffffffffffffffffffffffffffffffff166119a5565b156116f0578373ffffffffffffffffffffffffffffffffffffffff1663bc197c8187878686866040518663ffffffff1660e01b81526004016115769594939291906121f2565b602060405180830381600087803b15801561159057600080fd5b505af19250505080156115c157506040513d601f19601f820116820180604052508101906115be9190611e4c565b60015b611667576115cd6128f2565b806308c379a0141561162a57506115e2612dfc565b806115ed575061162c565b806040517f08c379a00000000000000000000000000000000000000000000000000000000081526004016116219190612328565b60405180910390fd5b505b6040517f08c379a000000000000000000000000000000000000000000000000000000000815260040161165e9061234a565b60405180910390fd5b63bc197c8160e01b7bffffffffffffffffffffffffffffffffffffffffffffffffffffffff1916817bffffffffffffffffffffffffffffffffffffffffffffffffffffffff1916146116ee576040517f08c379a00000000000000000000000000000000000000000000000000000000081526004016116e59061236a565b60405180910390fd5b505b505050505050565b60606000600167ffffffffffffffff81111561173d577f4e487b7100000000000000000000000000000000000000000000000000000000600052604160045260246000fd5b60405190808252806020026020018201604052801561176b5781602001602082028036833780820191505090505b50905082816000815181106117a9577f4e487b7100000000000000000000000000000000000000000000000000000000600052603260045260246000fd5b60200260200101818152505080915050919050565b6117dd8473ffffffffffffffffffffffffffffffffffffffff166119a5565b1561199d578373ffffffffffffffffffffffffffffffffffffffff1663f23a6e6187878686866040518663ffffffff1660e01b815260040161182395949392919061225a565b602060405180830381600087803b15801561183d57600080fd5b505af192505050801561186e57506040513d601f19601f8201168201806040525081019061186b9190611e4c565b60015b6119145761187a6128f2565b806308c379a014156118d7575061188f612dfc565b8061189a57506118d9565b806040517f08c379a00000000000000000000000000000000000000000000000000000000081526004016118ce9190612328565b60405180910390fd5b505b6040517f08c379a000000000000000000000000000000000000000000000000000000000815260040161190b9061234a565b60405180910390fd5b63f23a6e6160e01b7bffffffffffffffffffffffffffffffffffffffffffffffffffffffff1916817bffffffffffffffffffffffffffffffffffffffffffffffffffffffff19161461199b576040517f08c379a00000000000000000000000000000000000000000000000000000000081526004016119929061236a565b60405180910390fd5b505b505050505050565b600080823b905060008111915050919050565b60006119cb6119c6846125b3565b61258e565b905080838252602082019050828560208602820111156119ea57600080fd5b60005b85811015611a1a5781611a008882611ace565b8452602084019350602083019250506001810190506119ed565b5050509392505050565b6000611a37611a32846125df565b61258e565b90508083825260208201905082856020860282011115611a5657600080fd5b60005b85811015611a865781611a6c8882611ba0565b845260208401935060208301925050600181019050611a59565b5050509392505050565b6000611aa3611a9e8461260b565b61258e565b905082815260208101848484011115611abb57600080fd5b611ac6848285612777565b509392505050565b600081359050611add81612e92565b92915050565b600082601f830112611af457600080fd5b8135611b048482602086016119b8565b91505092915050565b600082601f830112611b1e57600080fd5b8135611b2e848260208601611a24565b91505092915050565b600081359050611b4681612ea9565b92915050565b600081359050611b5b81612ec0565b92915050565b600081519050611b7081612ec0565b92915050565b600082601f830112611b8757600080fd5b8135611b97848260208601611a90565b91505092915050565b600081359050611baf81612ed7565b92915050565b60008060408385031215611bc857600080fd5b6000611bd685828601611ace565b9250506020611be785828601611ace565b9150509250929050565b600080600080600060a08688031215611c0957600080fd5b6000611c1788828901611ace565b9550506020611c2888828901611ace565b945050604086013567ffffffffffffffff811115611c4557600080fd5b611c5188828901611b0d565b935050606086013567ffffffffffffffff811115611c6e57600080fd5b611c7a88828901611b0d565b925050608086013567ffffffffffffffff811115611c9757600080fd5b611ca388828901611b76565b9150509295509295909350565b600080600080600060a08688031215611cc857600080fd5b6000611cd688828901611ace565b9550506020611ce788828901611ace565b9450506040611cf888828901611ba0565b9350506060611d0988828901611ba0565b925050608086013567ffffffffffffffff811115611d2657600080fd5b611d3288828901611b76565b9150509295509295909350565b60008060408385031215611d5257600080fd5b6000611d6085828601611ace565b9250506020611d7185828601611b37565b9150509250929050565b60008060408385031215611d8e57600080fd5b6000611d9c85828601611ace565b9250506020611dad85828601611ba0565b9150509250929050565b60008060408385031215611dca57600080fd5b600083013567ffffffffffffffff811115611de457600080fd5b611df085828601611ae3565b925050602083013567ffffffffffffffff811115611e0d57600080fd5b611e1985828601611b0d565b9150509250929050565b600060208284031215611e3557600080fd5b6000611e4384828501611b4c565b91505092915050565b600060208284031215611e5e57600080fd5b6000611e6c84828501611b61565b91505092915050565b600060208284031215611e8757600080fd5b6000611e9584828501611ba0565b91505092915050565b6000611eaa83836121d4565b60208301905092915050565b611ebf81612703565b82525050565b6000611ed08261264c565b611eda818561267a565b9350611ee58361263c565b8060005b83811015611f16578151611efd8882611e9e565b9750611f088361266d565b925050600181019050611ee9565b5085935050505092915050565b611f2c81612715565b82525050565b6000611f3d82612657565b611f47818561268b565b9350611f57818560208601612786565b611f6081612914565b840191505092915050565b6000611f7682612662565b611f80818561269c565b9350611f90818560208601612786565b611f9981612914565b840191505092915050565b6000611fb160348361269c565b9150611fbc82612932565b604082019050919050565b6000611fd460288361269c565b9150611fdf82612981565b604082019050919050565b6000611ff7602b8361269c565b9150612002826129d0565b604082019050919050565b600061201a60228361269c565b915061202582612a1f565b604082019050919050565b600061203d60228361269c565b915061204882612a6e565b604082019050919050565b600061206060278361269c565b915061206b82612abd565b604082019050919050565b600061208360298361269c565b915061208e82612b0c565b604082019050919050565b60006120a660148361269c565b91506120b182612b5b565b602082019050919050565b60006120c960258361269c565b91506120d482612b84565b604082019050919050565b60006120ec60328361269c565b91506120f782612bd3565b604082019050919050565b600061210f602a8361269c565b915061211a82612c22565b604082019050919050565b600061213260298361269c565b915061213d82612c71565b604082019050919050565b600061215560298361269c565b915061216082612cc0565b604082019050919050565b600061217860288361269c565b915061218382612d0f565b604082019050919050565b600061219b60218361269c565b91506121a682612d5e565b604082019050919050565b60006121be60328361269c565b91506121c982612dad565b604082019050919050565b6121dd8161276d565b82525050565b6121ec8161276d565b82525050565b600060a0820190506122076000830188611eb6565b6122146020830187611eb6565b81810360408301526122268186611ec5565b9050818103606083015261223a8185611ec5565b9050818103608083015261224e8184611f32565b90509695505050505050565b600060a08201905061226f6000830188611eb6565b61227c6020830187611eb6565b61228960408301866121e3565b61229660608301856121e3565b81810360808301526122a88184611f32565b90509695505050505050565b600060208201905081810360008301526122ce8184611ec5565b905092915050565b600060408201905081810360008301526122f08185611ec5565b905081810360208301526123048184611ec5565b90509392505050565b60006020820190506123226000830184611f23565b92915050565b600060208201905081810360008301526123428184611f6b565b905092915050565b6000602082019050818103600083015261236381611fa4565b9050919050565b6000602082019050818103600083015261238381611fc7565b9050919050565b600060208201905081810360008301526123a381611fea565b9050919050565b600060208201905081810360008301526123c38161200d565b9050919050565b600060208201905081810360008301526123e381612030565b9050919050565b6000602082019050818103600083015261240381612053565b9050919050565b6000602082019050818103600083015261242381612076565b9050919050565b6000602082019050818103600083015261244381612099565b9050919050565b60006020820190508181036000830152612463816120bc565b9050919050565b60006020820190508181036000830152612483816120df565b9050919050565b600060208201905081810360008301526124a381612102565b9050919050565b600060208201905081810360008301526124c381612125565b9050919050565b600060208201905081810360008301526124e381612148565b9050919050565b600060208201905081810360008301526125038161216b565b9050919050565b600060208201905081810360008301526125238161218e565b9050919050565b60006020820190508181036000830152612543816121b1565b9050919050565b600060208201905061255f60008301846121e3565b92915050565b600060408201905061257a60008301856121e3565b61258760208301846121e3565b9392505050565b60006125986125a9565b90506125a482826127eb565b919050565b6000604051905090565b600067ffffffffffffffff8211156125ce576125cd6128c3565b5b602082029050602081019050919050565b600067ffffffffffffffff8211156125fa576125f96128c3565b5b602082029050602081019050919050565b600067ffffffffffffffff821115612626576126256128c3565b5b61262f82612914565b9050602081019050919050565b6000819050602082019050919050565b600081519050919050565b600081519050919050565b600081519050919050565b6000602082019050919050565b600082825260208201905092915050565b600082825260208201905092915050565b600082825260208201905092915050565b60006126b88261276d565b91506126c38361276d565b9250827fffffffffffffffffffffffffffffffffffffffffffffffffffffffffffffffff038211156126f8576126f7612865565b5b828201905092915050565b600061270e8261274d565b9050919050565b60008115159050919050565b60007fffffffff0000000000000000000000000000000000000000000000000000000082169050919050565b600073ffffffffffffffffffffffffffffffffffffffff82169050919050565b6000819050919050565b82818337600083830152505050565b60005b838110156127a4578082015181840152602081019050612789565b838111156127b3576000848401525b50505050565b600060028204905060018216806127d157607f821691505b602082108114156127e5576127e4612894565b5b50919050565b6127f482612914565b810181811067ffffffffffffffff82111715612813576128126128c3565b5b80604052505050565b60006128278261276d565b91507fffffffffffffffffffffffffffffffffffffffffffffffffffffffffffffffff82141561285a57612859612865565b5b600182019050919050565b7f4e487b7100000000000000000000000000000000000000000000000000000000600052601160045260246000fd5b7f4e487b7100000000000000000000000000000000000000000000000000000000600052602260045260246000fd5b7f4e487b7100000000000000000000000000000000000000000000000000000000600052604160045260246000fd5b600060033d11156129115760046000803e61290e600051612925565b90505b90565b6000601f19601f8301169050919050565b60008160e01c9050919050565b7f455243313135353a207472616e7366657220746f206e6f6e204552433131353560008201527f526563656976657220696d706c656d656e746572000000000000000000000000602082015250565b7f455243313135353a204552433131353552656365697665722072656a6563746560008201527f6420746f6b656e73000000000000000000000000000000000000000000000000602082015250565b7f455243313135353a2062616c616e636520717565727920666f7220746865207a60008201527f65726f2061646472657373000000000000000000000000000000000000000000602082015250565b7f596f75206d75737420626520746865206f776e657220746f207769746864726160008201527f772e000000000000000000000000000000000000000000000000000000000000602082015250565b7f5468657265206973206e6f206d6f6e6579206f6e207468697320636f6e74726160008201527f6374000000000000000000000000000000000000000000000000000000000000602082015250565b7f596f75206d75737420626520746865206f776e657220746f206368616e67652060008201527f7072696365732e00000000000000000000000000000000000000000000000000602082015250565b7f455243313135353a2063616c6c6572206973206e6f74206f776e6572206e6f7260008201527f20617070726f7665640000000000000000000000000000000000000000000000602082015250565b7f4661696c656420746f2073656e64204574686572000000000000000000000000600082015250565b7f455243313135353a207472616e7366657220746f20746865207a65726f20616460008201527f6472657373000000000000000000000000000000000000000000000000000000602082015250565b7f455243313135353a207472616e736665722063616c6c6572206973206e6f742060008201527f6f776e6572206e6f7220617070726f7665640000000000000000000000000000602082015250565b7f455243313135353a20696e73756666696369656e742062616c616e636520666f60008201527f72207472616e7366657200000000000000000000000000000000000000000000602082015250565b7f455243313135353a2073657474696e6720617070726f76616c2073746174757360008201527f20666f722073656c660000000000000000000000000000000000000000000000602082015250565b7f455243313135353a206163636f756e747320616e6420696473206c656e67746860008201527f206d69736d617463680000000000000000000000000000000000000000000000602082015250565b7f455243313135353a2069647320616e6420616d6f756e7473206c656e6774682060008201527f6d69736d61746368000000000000000000000000000000000000000000000000602082015250565b7f455243313135353a206d696e7420746f20746865207a65726f2061646472657360008201527f7300000000000000000000000000000000000000000000000000000000000000602082015250565b7f596f75206d7573742070726f766964652065746820696e206f7264657220746f60008201527f206163636573732074686520636c617373210000000000000000000000000000602082015250565b600060443d1015612e0c57612e8f565b612e146125a9565b60043d036004823e80513d602482011167ffffffffffffffff82111715612e3c575050612e8f565b808201805167ffffffffffffffff811115612e5a5750505050612e8f565b80602083010160043d038501811115612e77575050505050612e8f565b612e86826020018501866127eb565b82955050505050505b90565b612e9b81612703565b8114612ea657600080fd5b50565b612eb281612715565b8114612ebd57600080fd5b50565b612ec981612721565b8114612ed457600080fd5b50565b612ee08161276d565b8114612eeb57600080fd5b5056fea264697066735822122083481530c224ef6a6671c0ec33ea438fc6d7270afa18306c01d79bd4558bb02664736f6c63430008040033a26469706673582212204c1c012b0e9a6a38f668a8fbe3aca66e119aaa69cb6deb4923971e0e69b104ec64736f6c63430008040033",
  "linkReferences": {},
  "deployedLinkReferences": {}
}