{
  "_format": "hh-sol-artifact-1",
  "contractName": "CourseFactory",
  "sourceName": "contracts/CourseFactory.sol",
  "abi": [
    {
      "inputs": [],
      "stateMutability": "nonpayable",
      "type": "constructor"
    },
    {
      "anonymous": false,
      "inputs": [
        {
          "indexed": false,
          "internalType": "address",
          "name": "_address",
          "type": "address"
        }
      ],
      "name": "NewContractCreated",
      "type": "event"
    },
    {
      "inputs": [
        {
          "internalType": "uint256",
          "name": "",
          "type": "uint256"
        }
      ],
      "name": "allContracts",
      "outputs": [
        {
          "internalType": "address",
          "name": "",
          "type": "address"
        }
      ],
      "stateMutability": "view",
      "type": "function"
    },
    {
      "inputs": [
        {
          "internalType": "address",
          "name": "",
          "type": "address"
        },
        {
          "internalType": "uint256",
          "name": "",
          "type": "uint256"
        }
      ],
      "name": "allOwnersContracts",
      "outputs": [
        {
          "internalType": "address",
          "name": "",
          "type": "address"
        }
      ],
      "stateMutability": "view",
      "type": "function"
    },
    {
      "inputs": [
        {
          "internalType": "uint256",
          "name": "coursePrice",
          "type": "uint256"
        },
        {
          "internalType": "string",
          "name": "url",
          "type": "string"
        }
      ],
      "name": "createLesson",
      "outputs": [],
      "stateMutability": "nonpayable",
      "type": "function"
    },
    {
      "inputs": [],
      "name": "getContracts",
      "outputs": [
        {
          "internalType": "address[]",
          "name": "",
          "type": "address[]"
        }
      ],
      "stateMutability": "view",
      "type": "function"
    },
    {
      "inputs": [
        {
          "internalType": "address",
          "name": "_ownerAddress",
          "type": "address"
        }
      ],
      "name": "getCourses",
      "outputs": [
        {
          "internalType": "address[]",
          "name": "",
          "type": "address[]"
        }
      ],
      "stateMutability": "view",
      "type": "function"
    }
  ],
  "bytecode": "0x608060405234801561001057600080fd5b5033600160006101000a81548173ffffffffffffffffffffffffffffffffffffffff021916908373ffffffffffffffffffffffffffffffffffffffff160217905550614e0e806100616000396000f3fe60806040523480156200001157600080fd5b50600436106200005e5760003560e01c80631b77648f14620000635780634b6b89d31462000099578063c3a2a93a14620000b9578063d9774e5c14620000db578063e54e26b91462000111575b600080fd5b6200008160048036038101906200007b919062000731565b62000147565b604051620000909190620009cb565b60405180910390f35b620000b76004803603810190620000b19190620007ca565b6200029e565b005b620000c36200049e565b604051620000d29190620009cb565b60405180910390f35b620000f96004803603810190620000f391906200075d565b6200052e565b6040516200010891906200096a565b60405180910390f35b6200012f60048036038101906200012991906200079e565b6200057d565b6040516200013e91906200096a565b60405180910390f35b60606000600260008473ffffffffffffffffffffffffffffffffffffffff1673ffffffffffffffffffffffffffffffffffffffff1681526020019081526020016000208054905011620001d1576040517f08c379a0000000000000000000000000000000000000000000000000000000008152600401620001c89062000a11565b60405180910390fd5b600260008373ffffffffffffffffffffffffffffffffffffffff1673ffffffffffffffffffffffffffffffffffffffff1681526020019081526020016000208054806020026020016040519081016040528092919081815260200182805480156200029257602002820191906000526020600020905b8160009054906101000a900473ffffffffffffffffffffffffffffffffffffffff1673ffffffffffffffffffffffffffffffffffffffff168152602001906001019080831162000247575b50505050509050919050565b6000338383604051620002b19062000683565b620002bf9392919062000987565b604051809103906000f080158015620002dc573d6000803e3d6000fd5b509050620002ea81620005bd565b600073ffffffffffffffffffffffffffffffffffffffff168173ffffffffffffffffffffffffffffffffffffffff1614156200035d576040517f08c379a00000000000000000000000000000000000000000000000000000000081526004016200035490620009ef565b60405180910390fd5b6000819080600181540180825580915050600190039060005260206000200160009091909190916101000a81548173ffffffffffffffffffffffffffffffffffffffff021916908373ffffffffffffffffffffffffffffffffffffffff160217905550600260003373ffffffffffffffffffffffffffffffffffffffff1673ffffffffffffffffffffffffffffffffffffffff168152602001908152602001600020819080600181540180825580915050600190039060005260206000200160009091909190916101000a81548173ffffffffffffffffffffffffffffffffffffffff021916908373ffffffffffffffffffffffffffffffffffffffff1602179055507fda8571e58c4cf9dcae24580090e9dcfc82718f76bc81df86f8f18cfd0d6ad260816040516200049191906200096a565b60405180910390a1505050565b606060008054806020026020016040519081016040528092919081815260200182805480156200052457602002820191906000526020600020905b8160009054906101000a900473ffffffffffffffffffffffffffffffffffffffff1673ffffffffffffffffffffffffffffffffffffffff1681526020019060010190808311620004d9575b5050505050905090565b600260205281600052604060002081815481106200054b57600080fd5b906000526020600020016000915091509054906101000a900473ffffffffffffffffffffffffffffffffffffffff1681565b600081815481106200058e57600080fd5b906000526020600020016000915054906101000a900473ffffffffffffffffffffffffffffffffffffffff1681565b6200065781604051602401620005d491906200096a565b6040516020818303038152906040527f2c2ecbc2000000000000000000000000000000000000000000000000000000007bffffffffffffffffffffffffffffffffffffffffffffffffffffffff19166020820180517bffffffffffffffffffffffffffffffffffffffffffffffffffffffff83818316178352505050506200065a565b50565b60008151905060006a636f6e736f6c652e6c6f679050602083016000808483855afa5050505050565b61414c8062000c8d83390190565b6000620006a8620006a28462000a5c565b62000a33565b905082815260208101848484011115620006c157600080fd5b620006ce84828562000b25565b509392505050565b600081359050620006e78162000c58565b92915050565b600082601f830112620006ff57600080fd5b81356200071184826020860162000691565b91505092915050565b6000813590506200072b8162000c72565b92915050565b6000602082840312156200074457600080fd5b60006200075484828501620006d6565b91505092915050565b600080604083850312156200077157600080fd5b60006200078185828601620006d6565b925050602062000794858286016200071a565b9150509250929050565b600060208284031215620007b157600080fd5b6000620007c1848285016200071a565b91505092915050565b60008060408385031215620007de57600080fd5b6000620007ee858286016200071a565b925050602083013567ffffffffffffffff8111156200080c57600080fd5b6200081a85828601620006ed565b9150509250929050565b60006200083283836200083e565b60208301905092915050565b620008498162000ae7565b82525050565b6200085a8162000ae7565b82525050565b60006200086d8262000aa2565b62000879818562000ac5565b9350620008868362000a92565b8060005b83811015620008bd578151620008a1888262000824565b9750620008ae8362000ab8565b9250506001810190506200088a565b5085935050505092915050565b6000620008d78262000aad565b620008e3818562000ad6565b9350620008f581856020860162000b34565b620009008162000bcf565b840191505092915050565b60006200091a602c8362000ad6565b9150620009278262000be0565b604082019050919050565b600062000941601b8362000ad6565b91506200094e8262000c2f565b602082019050919050565b620009648162000b1b565b82525050565b60006020820190506200098160008301846200084f565b92915050565b60006060820190506200099e60008301866200084f565b620009ad602083018562000959565b8181036040830152620009c18184620008ca565b9050949350505050565b60006020820190508181036000830152620009e7818462000860565b905092915050565b6000602082019050818103600083015262000a0a816200090b565b9050919050565b6000602082019050818103600083015262000a2c8162000932565b9050919050565b600062000a3f62000a52565b905062000a4d828262000b6a565b919050565b6000604051905090565b600067ffffffffffffffff82111562000a7a5762000a7962000ba0565b5b62000a858262000bcf565b9050602081019050919050565b6000819050602082019050919050565b600081519050919050565b600081519050919050565b6000602082019050919050565b600082825260208201905092915050565b600082825260208201905092915050565b600062000af48262000afb565b9050919050565b600073ffffffffffffffffffffffffffffffffffffffff82169050919050565b6000819050919050565b82818337600083830152505050565b60005b8381101562000b5457808201518184015260208101905062000b37565b8381111562000b64576000848401525b50505050565b62000b758262000bcf565b810181811067ffffffffffffffff8211171562000b975762000b9662000ba0565b5b80604052505050565b7f4e487b7100000000000000000000000000000000000000000000000000000000600052604160045260246000fd5b6000601f19601f8301169050919050565b7f54686572652077617320616e206973737565207768696c65206372656174696e60008201527f672074686520636f757273650000000000000000000000000000000000000000602082015250565b7f596f7520646f6e2774206861766520616e7920636f6e74726163740000000000600082015250565b62000c638162000ae7565b811462000c6f57600080fd5b50565b62000c7d8162000b1b565b811462000c8957600080fd5b5056fe60806040523480156200001157600080fd5b506040516200414c3803806200414c833981810160405281019062000037919062000739565b806200004981620000fb60201b60201c565b5082600360006101000a81548173ffffffffffffffffffffffffffffffffffffffff021916908373ffffffffffffffffffffffffffffffffffffffff160217905550816004819055508060059080519060200190620000aa929190620005d2565b50620000f2600360009054906101000a900473ffffffffffffffffffffffffffffffffffffffff1660006001604051806020016040528060008152506200011760201b60201c565b50505062000eb5565b806002908051906020019062000113929190620005d2565b5050565b600073ffffffffffffffffffffffffffffffffffffffff168473ffffffffffffffffffffffffffffffffffffffff1614156200018a576040517f08c379a00000000000000000000000000000000000000000000000000000000081526004016200018190620009b9565b60405180910390fd5b60006200019c620002dc60201b60201c565b9050620001d581600087620001b788620002e460201b60201c565b620001c888620002e460201b60201c565b87620003ad60201b60201c565b8260008086815260200190815260200160002060008773ffffffffffffffffffffffffffffffffffffffff1673ffffffffffffffffffffffffffffffffffffffff168152602001908152602001600020600082825462000236919062000a9f565b925050819055508473ffffffffffffffffffffffffffffffffffffffff16600073ffffffffffffffffffffffffffffffffffffffff168273ffffffffffffffffffffffffffffffffffffffff167fc3d58168c5ae7397731d063d5bbf3d657854427343f4c083240f7aacaa2d0f628787604051620002b6929190620009db565b60405180910390a4620002d581600087878787620003b560201b60201c565b5050505050565b600033905090565b60606000600167ffffffffffffffff8111156200032a577f4e487b7100000000000000000000000000000000000000000000000000000000600052604160045260246000fd5b604051908082528060200260200182016040528015620003595781602001602082028036833780820191505090505b509050828160008151811062000398577f4e487b7100000000000000000000000000000000000000000000000000000000600052603260045260246000fd5b60200260200101818152505080915050919050565b505050505050565b620003e18473ffffffffffffffffffffffffffffffffffffffff16620005bf60201b62000d7e1760201c565b15620005b7578373ffffffffffffffffffffffffffffffffffffffff1663f23a6e6187878686866040518663ffffffff1660e01b81526004016200042a959493929190620008ed565b602060405180830381600087803b1580156200044557600080fd5b505af19250505080156200047957506040513d601f19601f82011682018060405250810190620004769190620007a8565b60015b6200052b576200048862000c95565b806308c379a01415620004ec5750620004a062000dc5565b80620004ad5750620004ee565b806040517f08c379a0000000000000000000000000000000000000000000000000000000008152600401620004e3919062000951565b60405180910390fd5b505b6040517f08c379a0000000000000000000000000000000000000000000000000000000008152600401620005229062000975565b60405180910390fd5b63f23a6e6160e01b7bffffffffffffffffffffffffffffffffffffffffffffffffffffffff1916817bffffffffffffffffffffffffffffffffffffffffffffffffffffffff191614620005b5576040517f08c379a0000000000000000000000000000000000000000000000000000000008152600401620005ac9062000997565b60405180910390fd5b505b505050505050565b600080823b905060008111915050919050565b828054620005e09062000b9c565b90600052602060002090601f01602090048101928262000604576000855562000650565b82601f106200061f57805160ff191683800117855562000650565b8280016001018555821562000650579182015b828111156200064f57825182559160200191906001019062000632565b5b5090506200065f919062000663565b5090565b5b808211156200067e57600081600090555060010162000664565b5090565b600062000699620006938462000a31565b62000a08565b905082815260208101848484011115620006b257600080fd5b620006bf84828562000b66565b509392505050565b600081519050620006d88162000e67565b92915050565b600081519050620006ef8162000e81565b92915050565b600082601f8301126200070757600080fd5b81516200071984826020860162000682565b91505092915050565b600081519050620007338162000e9b565b92915050565b6000806000606084860312156200074f57600080fd5b60006200075f86828701620006c7565b9350506020620007728682870162000722565b925050604084015167ffffffffffffffff8111156200079057600080fd5b6200079e86828701620006f5565b9150509250925092565b600060208284031215620007bb57600080fd5b6000620007cb84828501620006de565b91505092915050565b620007df8162000afc565b82525050565b6000620007f28262000a67565b620007fe818562000a7d565b93506200081081856020860162000b66565b6200081b8162000cba565b840191505092915050565b6000620008338262000a72565b6200083f818562000a8e565b93506200085181856020860162000b66565b6200085c8162000cba565b840191505092915050565b60006200087660348362000a8e565b9150620008838262000cd8565b604082019050919050565b60006200089d60288362000a8e565b9150620008aa8262000d27565b604082019050919050565b6000620008c460218362000a8e565b9150620008d18262000d76565b604082019050919050565b620008e78162000b5c565b82525050565b600060a082019050620009046000830188620007d4565b620009136020830187620007d4565b620009226040830186620008dc565b620009316060830185620008dc565b8181036080830152620009458184620007e5565b90509695505050505050565b600060208201905081810360008301526200096d818462000826565b905092915050565b60006020820190508181036000830152620009908162000867565b9050919050565b60006020820190508181036000830152620009b2816200088e565b9050919050565b60006020820190508181036000830152620009d481620008b5565b9050919050565b6000604082019050620009f26000830185620008dc565b62000a016020830184620008dc565b9392505050565b600062000a1462000a27565b905062000a22828262000bd2565b919050565b6000604051905090565b600067ffffffffffffffff82111562000a4f5762000a4e62000c66565b5b62000a5a8262000cba565b9050602081019050919050565b600081519050919050565b600081519050919050565b600082825260208201905092915050565b600082825260208201905092915050565b600062000aac8262000b5c565b915062000ab98362000b5c565b9250827fffffffffffffffffffffffffffffffffffffffffffffffffffffffffffffffff0382111562000af15762000af062000c08565b5b828201905092915050565b600062000b098262000b3c565b9050919050565b60007fffffffff0000000000000000000000000000000000000000000000000000000082169050919050565b600073ffffffffffffffffffffffffffffffffffffffff82169050919050565b6000819050919050565b60005b8381101562000b8657808201518184015260208101905062000b69565b8381111562000b96576000848401525b50505050565b6000600282049050600182168062000bb557607f821691505b6020821081141562000bcc5762000bcb62000c37565b5b50919050565b62000bdd8262000cba565b810181811067ffffffffffffffff8211171562000bff5762000bfe62000c66565b5b80604052505050565b7f4e487b7100000000000000000000000000000000000000000000000000000000600052601160045260246000fd5b7f4e487b7100000000000000000000000000000000000000000000000000000000600052602260045260246000fd5b7f4e487b7100000000000000000000000000000000000000000000000000000000600052604160045260246000fd5b600060033d111562000cb75760046000803e62000cb460005162000ccb565b90505b90565b6000601f19601f8301169050919050565b60008160e01c9050919050565b7f455243313135353a207472616e7366657220746f206e6f6e204552433131353560008201527f526563656976657220696d706c656d656e746572000000000000000000000000602082015250565b7f455243313135353a204552433131353552656365697665722072656a6563746560008201527f6420746f6b656e73000000000000000000000000000000000000000000000000602082015250565b7f455243313135353a206d696e7420746f20746865207a65726f2061646472657360008201527f7300000000000000000000000000000000000000000000000000000000000000602082015250565b600060443d101562000dd75762000e64565b62000de162000a27565b60043d036004823e80513d602482011167ffffffffffffffff8211171562000e0b57505062000e64565b808201805167ffffffffffffffff81111562000e2b575050505062000e64565b80602083010160043d03850181111562000e4a57505050505062000e64565b62000e5b8260200185018662000bd2565b82955050505050505b90565b62000e728162000afc565b811462000e7e57600080fd5b50565b62000e8c8162000b10565b811462000e9857600080fd5b50565b62000ea68162000b5c565b811462000eb257600080fd5b50565b6132878062000ec56000396000f3fe6080604052600436106101015760003560e01c80637bf6df9111610095578063d321fe2911610064578063d321fe291461034f578063d5b019791461037a578063e8a3d48514610384578063e985e9c5146103af578063f242432a146103ec57610108565b80637bf6df91146102a7578063827cc452146102d2578063a22cb465146102fb578063aa8c217c1461032457610108565b80632eb2c2d6116100d15780632eb2c2d6146101ed578063477b0f40146102165780634e1273f4146102415780635c3205161461027e57610108565b8062fdd58e1461010d57806301ffc9a71461014a57806302fe5305146101875780630e89341c146101b057610108565b3661010857005b600080fd5b34801561011957600080fd5b50610134600480360381019061012f919061206c565b610415565b604051610141919061287c565b60405180910390f35b34801561015657600080fd5b50610171600480360381019061016c9190612114565b6104de565b60405161017e919061263f565b60405180910390f35b34801561019357600080fd5b506101ae60048036038101906101a99190612166565b6105c0565b005b3480156101bc57600080fd5b506101d760048036038101906101d291906121a7565b6105cc565b6040516101e4919061265a565b60405180910390f35b3480156101f957600080fd5b50610214600480360381019061020f9190611ee2565b610660565b005b34801561022257600080fd5b5061022b610701565b604051610238919061265a565b60405180910390f35b34801561024d57600080fd5b50610268600480360381019061026391906120a8565b61078f565b60405161027591906125e6565b60405180910390f35b34801561028a57600080fd5b506102a560048036038101906102a091906121a7565b610940565b005b3480156102b357600080fd5b506102bc6109da565b6040516102c9919061287c565b60405180910390f35b3480156102de57600080fd5b506102f960048036038101906102f491906121a7565b6109df565b005b34801561030757600080fd5b50610322600480360381019061031d9190612030565b610b2e565b005b34801561033057600080fd5b50610339610b44565b604051610346919061287c565b60405180910390f35b34801561035b57600080fd5b50610364610b4a565b604051610371919061287c565b60405180910390f35b610382610b54565b005b34801561039057600080fd5b50610399610bb7565b6040516103a6919061265a565b60405180910390f35b3480156103bb57600080fd5b506103d660048036038101906103d19190611ea6565b610c49565b6040516103e3919061263f565b60405180910390f35b3480156103f857600080fd5b50610413600480360381019061040e9190611fa1565b610cdd565b005b60008073ffffffffffffffffffffffffffffffffffffffff168373ffffffffffffffffffffffffffffffffffffffff161415610486576040517f08c379a000000000000000000000000000000000000000000000000000000000815260040161047d906126bc565b60405180910390fd5b60008083815260200190815260200160002060008473ffffffffffffffffffffffffffffffffffffffff1673ffffffffffffffffffffffffffffffffffffffff16815260200190815260200160002054905092915050565b60007fd9b67a26000000000000000000000000000000000000000000000000000000007bffffffffffffffffffffffffffffffffffffffffffffffffffffffff1916827bffffffffffffffffffffffffffffffffffffffffffffffffffffffff191614806105a957507f0e89341c000000000000000000000000000000000000000000000000000000007bffffffffffffffffffffffffffffffffffffffffffffffffffffffff1916827bffffffffffffffffffffffffffffffffffffffffffffffffffffffff1916145b806105b957506105b882610d91565b5b9050919050565b6105c981610dfb565b50565b6060600280546105db90612b1c565b80601f016020809104026020016040519081016040528092919081815260200182805461060790612b1c565b80156106545780601f1061062957610100808354040283529160200191610654565b820191906000526020600020905b81548152906001019060200180831161063757829003601f168201915b50505050509050919050565b610668610e15565b73ffffffffffffffffffffffffffffffffffffffff168573ffffffffffffffffffffffffffffffffffffffff1614806106ae57506106ad856106a8610e15565b610c49565b5b6106ed576040517f08c379a00000000000000000000000000000000000000000000000000000000081526004016106e49061279c565b60405180910390fd5b6106fa8585858585610e1d565b5050505050565b6005805461070e90612b1c565b80601f016020809104026020016040519081016040528092919081815260200182805461073a90612b1c565b80156107875780601f1061075c57610100808354040283529160200191610787565b820191906000526020600020905b81548152906001019060200180831161076a57829003601f168201915b505050505081565b606081518351146107d5576040517f08c379a00000000000000000000000000000000000000000000000000000000081526004016107cc906127fc565b60405180910390fd5b6000835167ffffffffffffffff811115610818577f4e487b7100000000000000000000000000000000000000000000000000000000600052604160045260246000fd5b6040519080825280602002602001820160405280156108465781602001602082028036833780820191505090505b50905060005b8451811015610935576108df858281518110610891577f4e487b7100000000000000000000000000000000000000000000000000000000600052603260045260246000fd5b60200260200101518583815181106108d2577f4e487b7100000000000000000000000000000000000000000000000000000000600052603260045260246000fd5b6020026020010151610415565b828281518110610918577f4e487b7100000000000000000000000000000000000000000000000000000000600052603260045260246000fd5b6020026020010181815250508061092e90612b7f565b905061084c565b508091505092915050565b600360009054906101000a900473ffffffffffffffffffffffffffffffffffffffff1673ffffffffffffffffffffffffffffffffffffffff163373ffffffffffffffffffffffffffffffffffffffff16146109d0576040517f08c379a00000000000000000000000000000000000000000000000000000000081526004016109c79061271c565b60405180910390fd5b8060048190555050565b600081565b600360009054906101000a900473ffffffffffffffffffffffffffffffffffffffff1673ffffffffffffffffffffffffffffffffffffffff163373ffffffffffffffffffffffffffffffffffffffff1614610a6f576040517f08c379a0000000000000000000000000000000000000000000000000000000008152600401610a66906126dc565b60405180910390fd5b804711610ab1576040517f08c379a0000000000000000000000000000000000000000000000000000000008152600401610aa8906126fc565b60405180910390fd5b60003373ffffffffffffffffffffffffffffffffffffffff166108fc839081150290604051600060405180830381858888f19350505050905080610b2a576040517f08c379a0000000000000000000000000000000000000000000000000000000008152600401610b219061275c565b60405180910390fd5b5050565b610b40610b39610e15565b838361117d565b5050565b60045481565b6000600454905090565b6004543411610b98576040517f08c379a0000000000000000000000000000000000000000000000000000000008152600401610b8f9061285c565b60405180910390fd5b610bb53360006001604051806020016040528060008152506112ea565b565b606060058054610bc690612b1c565b80601f0160208091040260200160405190810160405280929190818152602001828054610bf290612b1c565b8015610c3f5780601f10610c1457610100808354040283529160200191610c3f565b820191906000526020600020905b815481529060010190602001808311610c2257829003601f168201915b5050505050905090565b6000600160008473ffffffffffffffffffffffffffffffffffffffff1673ffffffffffffffffffffffffffffffffffffffff16815260200190815260200160002060008373ffffffffffffffffffffffffffffffffffffffff1673ffffffffffffffffffffffffffffffffffffffff16815260200190815260200160002060009054906101000a900460ff16905092915050565b610ce5610e15565b73ffffffffffffffffffffffffffffffffffffffff168573ffffffffffffffffffffffffffffffffffffffff161480610d2b5750610d2a85610d25610e15565b610c49565b5b610d6a576040517f08c379a0000000000000000000000000000000000000000000000000000000008152600401610d619061273c565b60405180910390fd5b610d778585858585611480565b5050505050565b600080823b905060008111915050919050565b60007f01ffc9a7000000000000000000000000000000000000000000000000000000007bffffffffffffffffffffffffffffffffffffffffffffffffffffffff1916827bffffffffffffffffffffffffffffffffffffffffffffffffffffffff1916149050919050565b8060029080519060200190610e11929190611b9e565b5050565b600033905090565b8151835114610e61576040517f08c379a0000000000000000000000000000000000000000000000000000000008152600401610e589061281c565b60405180910390fd5b600073ffffffffffffffffffffffffffffffffffffffff168473ffffffffffffffffffffffffffffffffffffffff161415610ed1576040517f08c379a0000000000000000000000000000000000000000000000000000000008152600401610ec89061277c565b60405180910390fd5b6000610edb610e15565b9050610eeb818787878787611702565b60005b84518110156110e8576000858281518110610f32577f4e487b7100000000000000000000000000000000000000000000000000000000600052603260045260246000fd5b602002602001015190506000858381518110610f77577f4e487b7100000000000000000000000000000000000000000000000000000000600052603260045260246000fd5b60200260200101519050600080600084815260200190815260200160002060008b73ffffffffffffffffffffffffffffffffffffffff1673ffffffffffffffffffffffffffffffffffffffff16815260200190815260200160002054905081811015611018576040517f08c379a000000000000000000000000000000000000000000000000000000000815260040161100f906127bc565b60405180910390fd5b81810360008085815260200190815260200160002060008c73ffffffffffffffffffffffffffffffffffffffff1673ffffffffffffffffffffffffffffffffffffffff168152602001908152602001600020819055508160008085815260200190815260200160002060008b73ffffffffffffffffffffffffffffffffffffffff1673ffffffffffffffffffffffffffffffffffffffff16815260200190815260200160002060008282546110cd9190612a10565b92505081905550505050806110e190612b7f565b9050610eee565b508473ffffffffffffffffffffffffffffffffffffffff168673ffffffffffffffffffffffffffffffffffffffff168273ffffffffffffffffffffffffffffffffffffffff167f4a39dc06d4c0dbc64b70af90fd698a233a518aa5d07e595d983b8c0526c8f7fb878760405161115f929190612608565b60405180910390a461117581878787878761170a565b505050505050565b8173ffffffffffffffffffffffffffffffffffffffff168373ffffffffffffffffffffffffffffffffffffffff1614156111ec576040517f08c379a00000000000000000000000000000000000000000000000000000000081526004016111e3906127dc565b60405180910390fd5b80600160008573ffffffffffffffffffffffffffffffffffffffff1673ffffffffffffffffffffffffffffffffffffffff16815260200190815260200160002060008473ffffffffffffffffffffffffffffffffffffffff1673ffffffffffffffffffffffffffffffffffffffff16815260200190815260200160002060006101000a81548160ff0219169083151502179055508173ffffffffffffffffffffffffffffffffffffffff168373ffffffffffffffffffffffffffffffffffffffff167f17307eab39ab6107e8899845ad3d59bd9653f200f220920489ca2b5937696c31836040516112dd919061263f565b60405180910390a3505050565b600073ffffffffffffffffffffffffffffffffffffffff168473ffffffffffffffffffffffffffffffffffffffff16141561135a576040517f08c379a00000000000000000000000000000000000000000000000000000000081526004016113519061283c565b60405180910390fd5b6000611364610e15565b905061138581600087611376886118f1565b61137f886118f1565b87611702565b8260008086815260200190815260200160002060008773ffffffffffffffffffffffffffffffffffffffff1673ffffffffffffffffffffffffffffffffffffffff16815260200190815260200160002060008282546113e49190612a10565b925050819055508473ffffffffffffffffffffffffffffffffffffffff16600073ffffffffffffffffffffffffffffffffffffffff168273ffffffffffffffffffffffffffffffffffffffff167fc3d58168c5ae7397731d063d5bbf3d657854427343f4c083240f7aacaa2d0f628787604051611462929190612897565b60405180910390a4611479816000878787876119b7565b5050505050565b600073ffffffffffffffffffffffffffffffffffffffff168473ffffffffffffffffffffffffffffffffffffffff1614156114f0576040517f08c379a00000000000000000000000000000000000000000000000000000000081526004016114e79061277c565b60405180910390fd5b60006114fa610e15565b905061151a81878761150b886118f1565b611514886118f1565b87611702565b600080600086815260200190815260200160002060008873ffffffffffffffffffffffffffffffffffffffff1673ffffffffffffffffffffffffffffffffffffffff168152602001908152602001600020549050838110156115b1576040517f08c379a00000000000000000000000000000000000000000000000000000000081526004016115a8906127bc565b60405180910390fd5b83810360008087815260200190815260200160002060008973ffffffffffffffffffffffffffffffffffffffff1673ffffffffffffffffffffffffffffffffffffffff168152602001908152602001600020819055508360008087815260200190815260200160002060008873ffffffffffffffffffffffffffffffffffffffff1673ffffffffffffffffffffffffffffffffffffffff16815260200190815260200160002060008282546116669190612a10565b925050819055508573ffffffffffffffffffffffffffffffffffffffff168773ffffffffffffffffffffffffffffffffffffffff168373ffffffffffffffffffffffffffffffffffffffff167fc3d58168c5ae7397731d063d5bbf3d657854427343f4c083240f7aacaa2d0f6288886040516116e3929190612897565b60405180910390a46116f98288888888886119b7565b50505050505050565b505050505050565b6117298473ffffffffffffffffffffffffffffffffffffffff16610d7e565b156118e9578373ffffffffffffffffffffffffffffffffffffffff1663bc197c8187878686866040518663ffffffff1660e01b815260040161176f959493929190612524565b602060405180830381600087803b15801561178957600080fd5b505af19250505080156117ba57506040513d601f19601f820116820180604052508101906117b7919061213d565b60015b611860576117c6612c55565b806308c379a0141561182357506117db61315f565b806117e65750611825565b806040517f08c379a000000000000000000000000000000000000000000000000000000000815260040161181a919061265a565b60405180910390fd5b505b6040517f08c379a00000000000000000000000000000000000000000000000000000000081526004016118579061267c565b60405180910390fd5b63bc197c8160e01b7bffffffffffffffffffffffffffffffffffffffffffffffffffffffff1916817bffffffffffffffffffffffffffffffffffffffffffffffffffffffff1916146118e7576040517f08c379a00000000000000000000000000000000000000000000000000000000081526004016118de9061269c565b60405180910390fd5b505b505050505050565b60606000600167ffffffffffffffff811115611936577f4e487b7100000000000000000000000000000000000000000000000000000000600052604160045260246000fd5b6040519080825280602002602001820160405280156119645781602001602082028036833780820191505090505b50905082816000815181106119a2577f4e487b7100000000000000000000000000000000000000000000000000000000600052603260045260246000fd5b60200260200101818152505080915050919050565b6119d68473ffffffffffffffffffffffffffffffffffffffff16610d7e565b15611b96578373ffffffffffffffffffffffffffffffffffffffff1663f23a6e6187878686866040518663ffffffff1660e01b8152600401611a1c95949392919061258c565b602060405180830381600087803b158015611a3657600080fd5b505af1925050508015611a6757506040513d601f19601f82011682018060405250810190611a64919061213d565b60015b611b0d57611a73612c55565b806308c379a01415611ad05750611a8861315f565b80611a935750611ad2565b806040517f08c379a0000000000000000000000000000000000000000000000000000000008152600401611ac7919061265a565b60405180910390fd5b505b6040517f08c379a0000000000000000000000000000000000000000000000000000000008152600401611b049061267c565b60405180910390fd5b63f23a6e6160e01b7bffffffffffffffffffffffffffffffffffffffffffffffffffffffff1916817bffffffffffffffffffffffffffffffffffffffffffffffffffffffff191614611b94576040517f08c379a0000000000000000000000000000000000000000000000000000000008152600401611b8b9061269c565b60405180910390fd5b505b505050505050565b828054611baa90612b1c565b90600052602060002090601f016020900481019282611bcc5760008555611c13565b82601f10611be557805160ff1916838001178555611c13565b82800160010185558215611c13579182015b82811115611c12578251825591602001919060010190611bf7565b5b509050611c209190611c24565b5090565b5b80821115611c3d576000816000905550600101611c25565b5090565b6000611c54611c4f846128e5565b6128c0565b90508083825260208201905082856020860282011115611c7357600080fd5b60005b85811015611ca35781611c898882611d95565b845260208401935060208301925050600181019050611c76565b5050509392505050565b6000611cc0611cbb84612911565b6128c0565b90508083825260208201905082856020860282011115611cdf57600080fd5b60005b85811015611d0f5781611cf58882611e91565b845260208401935060208301925050600181019050611ce2565b5050509392505050565b6000611d2c611d278461293d565b6128c0565b905082815260208101848484011115611d4457600080fd5b611d4f848285612ada565b509392505050565b6000611d6a611d658461296e565b6128c0565b905082815260208101848484011115611d8257600080fd5b611d8d848285612ada565b509392505050565b600081359050611da4816131f5565b92915050565b600082601f830112611dbb57600080fd5b8135611dcb848260208601611c41565b91505092915050565b600082601f830112611de557600080fd5b8135611df5848260208601611cad565b91505092915050565b600081359050611e0d8161320c565b92915050565b600081359050611e2281613223565b92915050565b600081519050611e3781613223565b92915050565b600082601f830112611e4e57600080fd5b8135611e5e848260208601611d19565b91505092915050565b600082601f830112611e7857600080fd5b8135611e88848260208601611d57565b91505092915050565b600081359050611ea08161323a565b92915050565b60008060408385031215611eb957600080fd5b6000611ec785828601611d95565b9250506020611ed885828601611d95565b9150509250929050565b600080600080600060a08688031215611efa57600080fd5b6000611f0888828901611d95565b9550506020611f1988828901611d95565b945050604086013567ffffffffffffffff811115611f3657600080fd5b611f4288828901611dd4565b935050606086013567ffffffffffffffff811115611f5f57600080fd5b611f6b88828901611dd4565b925050608086013567ffffffffffffffff811115611f8857600080fd5b611f9488828901611e3d565b9150509295509295909350565b600080600080600060a08688031215611fb957600080fd5b6000611fc788828901611d95565b9550506020611fd888828901611d95565b9450506040611fe988828901611e91565b9350506060611ffa88828901611e91565b925050608086013567ffffffffffffffff81111561201757600080fd5b61202388828901611e3d565b9150509295509295909350565b6000806040838503121561204357600080fd5b600061205185828601611d95565b925050602061206285828601611dfe565b9150509250929050565b6000806040838503121561207f57600080fd5b600061208d85828601611d95565b925050602061209e85828601611e91565b9150509250929050565b600080604083850312156120bb57600080fd5b600083013567ffffffffffffffff8111156120d557600080fd5b6120e185828601611daa565b925050602083013567ffffffffffffffff8111156120fe57600080fd5b61210a85828601611dd4565b9150509250929050565b60006020828403121561212657600080fd5b600061213484828501611e13565b91505092915050565b60006020828403121561214f57600080fd5b600061215d84828501611e28565b91505092915050565b60006020828403121561217857600080fd5b600082013567ffffffffffffffff81111561219257600080fd5b61219e84828501611e67565b91505092915050565b6000602082840312156121b957600080fd5b60006121c784828501611e91565b91505092915050565b60006121dc8383612506565b60208301905092915050565b6121f181612a66565b82525050565b6000612202826129af565b61220c81856129dd565b93506122178361299f565b8060005b8381101561224857815161222f88826121d0565b975061223a836129d0565b92505060018101905061221b565b5085935050505092915050565b61225e81612a78565b82525050565b600061226f826129ba565b61227981856129ee565b9350612289818560208601612ae9565b61229281612c77565b840191505092915050565b60006122a8826129c5565b6122b281856129ff565b93506122c2818560208601612ae9565b6122cb81612c77565b840191505092915050565b60006122e36034836129ff565b91506122ee82612c95565b604082019050919050565b60006123066028836129ff565b915061231182612ce4565b604082019050919050565b6000612329602b836129ff565b915061233482612d33565b604082019050919050565b600061234c6022836129ff565b915061235782612d82565b604082019050919050565b600061236f6022836129ff565b915061237a82612dd1565b604082019050919050565b60006123926027836129ff565b915061239d82612e20565b604082019050919050565b60006123b56029836129ff565b91506123c082612e6f565b604082019050919050565b60006123d86014836129ff565b91506123e382612ebe565b602082019050919050565b60006123fb6025836129ff565b915061240682612ee7565b604082019050919050565b600061241e6032836129ff565b915061242982612f36565b604082019050919050565b6000612441602a836129ff565b915061244c82612f85565b604082019050919050565b60006124646029836129ff565b915061246f82612fd4565b604082019050919050565b60006124876029836129ff565b915061249282613023565b604082019050919050565b60006124aa6028836129ff565b91506124b582613072565b604082019050919050565b60006124cd6021836129ff565b91506124d8826130c1565b604082019050919050565b60006124f06032836129ff565b91506124fb82613110565b604082019050919050565b61250f81612ad0565b82525050565b61251e81612ad0565b82525050565b600060a08201905061253960008301886121e8565b61254660208301876121e8565b818103604083015261255881866121f7565b9050818103606083015261256c81856121f7565b905081810360808301526125808184612264565b90509695505050505050565b600060a0820190506125a160008301886121e8565b6125ae60208301876121e8565b6125bb6040830186612515565b6125c86060830185612515565b81810360808301526125da8184612264565b90509695505050505050565b6000602082019050818103600083015261260081846121f7565b905092915050565b6000604082019050818103600083015261262281856121f7565b9050818103602083015261263681846121f7565b90509392505050565b60006020820190506126546000830184612255565b92915050565b60006020820190508181036000830152612674818461229d565b905092915050565b60006020820190508181036000830152612695816122d6565b9050919050565b600060208201905081810360008301526126b5816122f9565b9050919050565b600060208201905081810360008301526126d58161231c565b9050919050565b600060208201905081810360008301526126f58161233f565b9050919050565b6000602082019050818103600083015261271581612362565b9050919050565b6000602082019050818103600083015261273581612385565b9050919050565b60006020820190508181036000830152612755816123a8565b9050919050565b60006020820190508181036000830152612775816123cb565b9050919050565b60006020820190508181036000830152612795816123ee565b9050919050565b600060208201905081810360008301526127b581612411565b9050919050565b600060208201905081810360008301526127d581612434565b9050919050565b600060208201905081810360008301526127f581612457565b9050919050565b600060208201905081810360008301526128158161247a565b9050919050565b600060208201905081810360008301526128358161249d565b9050919050565b60006020820190508181036000830152612855816124c0565b9050919050565b60006020820190508181036000830152612875816124e3565b9050919050565b60006020820190506128916000830184612515565b92915050565b60006040820190506128ac6000830185612515565b6128b96020830184612515565b9392505050565b60006128ca6128db565b90506128d68282612b4e565b919050565b6000604051905090565b600067ffffffffffffffff821115612900576128ff612c26565b5b602082029050602081019050919050565b600067ffffffffffffffff82111561292c5761292b612c26565b5b602082029050602081019050919050565b600067ffffffffffffffff82111561295857612957612c26565b5b61296182612c77565b9050602081019050919050565b600067ffffffffffffffff82111561298957612988612c26565b5b61299282612c77565b9050602081019050919050565b6000819050602082019050919050565b600081519050919050565b600081519050919050565b600081519050919050565b6000602082019050919050565b600082825260208201905092915050565b600082825260208201905092915050565b600082825260208201905092915050565b6000612a1b82612ad0565b9150612a2683612ad0565b9250827fffffffffffffffffffffffffffffffffffffffffffffffffffffffffffffffff03821115612a5b57612a5a612bc8565b5b828201905092915050565b6000612a7182612ab0565b9050919050565b60008115159050919050565b60007fffffffff0000000000000000000000000000000000000000000000000000000082169050919050565b600073ffffffffffffffffffffffffffffffffffffffff82169050919050565b6000819050919050565b82818337600083830152505050565b60005b83811015612b07578082015181840152602081019050612aec565b83811115612b16576000848401525b50505050565b60006002820490506001821680612b3457607f821691505b60208210811415612b4857612b47612bf7565b5b50919050565b612b5782612c77565b810181811067ffffffffffffffff82111715612b7657612b75612c26565b5b80604052505050565b6000612b8a82612ad0565b91507fffffffffffffffffffffffffffffffffffffffffffffffffffffffffffffffff821415612bbd57612bbc612bc8565b5b600182019050919050565b7f4e487b7100000000000000000000000000000000000000000000000000000000600052601160045260246000fd5b7f4e487b7100000000000000000000000000000000000000000000000000000000600052602260045260246000fd5b7f4e487b7100000000000000000000000000000000000000000000000000000000600052604160045260246000fd5b600060033d1115612c745760046000803e612c71600051612c88565b90505b90565b6000601f19601f8301169050919050565b60008160e01c9050919050565b7f455243313135353a207472616e7366657220746f206e6f6e204552433131353560008201527f526563656976657220696d706c656d656e746572000000000000000000000000602082015250565b7f455243313135353a204552433131353552656365697665722072656a6563746560008201527f6420746f6b656e73000000000000000000000000000000000000000000000000602082015250565b7f455243313135353a2062616c616e636520717565727920666f7220746865207a60008201527f65726f2061646472657373000000000000000000000000000000000000000000602082015250565b7f596f75206d75737420626520746865206f776e657220746f207769746864726160008201527f772e000000000000000000000000000000000000000000000000000000000000602082015250565b7f5468657265206973206e6f206d6f6e6579206f6e207468697320636f6e74726160008201527f6374000000000000000000000000000000000000000000000000000000000000602082015250565b7f596f75206d75737420626520746865206f776e657220746f206368616e67652060008201527f7072696365732e00000000000000000000000000000000000000000000000000602082015250565b7f455243313135353a2063616c6c6572206973206e6f74206f776e6572206e6f7260008201527f20617070726f7665640000000000000000000000000000000000000000000000602082015250565b7f4661696c656420746f2073656e64204574686572000000000000000000000000600082015250565b7f455243313135353a207472616e7366657220746f20746865207a65726f20616460008201527f6472657373000000000000000000000000000000000000000000000000000000602082015250565b7f455243313135353a207472616e736665722063616c6c6572206973206e6f742060008201527f6f776e6572206e6f7220617070726f7665640000000000000000000000000000602082015250565b7f455243313135353a20696e73756666696369656e742062616c616e636520666f60008201527f72207472616e7366657200000000000000000000000000000000000000000000602082015250565b7f455243313135353a2073657474696e6720617070726f76616c2073746174757360008201527f20666f722073656c660000000000000000000000000000000000000000000000602082015250565b7f455243313135353a206163636f756e747320616e6420696473206c656e67746860008201527f206d69736d617463680000000000000000000000000000000000000000000000602082015250565b7f455243313135353a2069647320616e6420616d6f756e7473206c656e6774682060008201527f6d69736d61746368000000000000000000000000000000000000000000000000602082015250565b7f455243313135353a206d696e7420746f20746865207a65726f2061646472657360008201527f7300000000000000000000000000000000000000000000000000000000000000602082015250565b7f596f75206d7573742070726f766964652065746820696e206f7264657220746f60008201527f206163636573732074686520636c617373210000000000000000000000000000602082015250565b600060443d101561316f576131f2565b6131776128db565b60043d036004823e80513d602482011167ffffffffffffffff8211171561319f5750506131f2565b808201805167ffffffffffffffff8111156131bd57505050506131f2565b80602083010160043d0385018111156131da5750505050506131f2565b6131e982602001850186612b4e565b82955050505050505b90565b6131fe81612a66565b811461320957600080fd5b50565b61321581612a78565b811461322057600080fd5b50565b61322c81612a84565b811461323757600080fd5b50565b61324381612ad0565b811461324e57600080fd5b5056fea26469706673582212205093aa8fd09947c1996bbf6d39d43dcbc0ada6ae347d98719eb7591e89c5c64264736f6c63430008040033a26469706673582212207a174ec50f0c92c27d273cc34ed8c1ab79b5dd92508f6c42db8eb7b5811bfeb564736f6c63430008040033",
  "linkReferences": {},
  "deployedLinkReferences": {}
}