{
  "_format": "hh-sol-artifact-1",
  "contractName": "Course",
  "sourceName": "contracts/Course.sol",
  "abi": [
    {
      "inputs": [
        {
          "internalType": "address",
          "name": "deployer",
          "type": "address"
        },
        {
          "internalType": "uint256",
          "name": "coursePrice",
          "type": "uint256"
        },
        {
          "internalType": "string",
          "name": "url",
          "type": "string"
        }
      ],
      "stateMutability": "nonpayable",
      "type": "constructor"
    },
    {
      "anonymous": false,
      "inputs": [
        {
          "indexed": true,
          "internalType": "address",
          "name": "account",
          "type": "address"
        },
        {
          "indexed": true,
          "internalType": "address",
          "name": "operator",
          "type": "address"
        },
        {
          "indexed": false,
          "internalType": "bool",
          "name": "approved",
          "type": "bool"
        }
      ],
      "name": "ApprovalForAll",
      "type": "event"
    },
    {
      "anonymous": false,
      "inputs": [
        {
          "indexed": true,
          "internalType": "address",
          "name": "operator",
          "type": "address"
        },
        {
          "indexed": true,
          "internalType": "address",
          "name": "from",
          "type": "address"
        },
        {
          "indexed": true,
          "internalType": "address",
          "name": "to",
          "type": "address"
        },
        {
          "indexed": false,
          "internalType": "uint256[]",
          "name": "ids",
          "type": "uint256[]"
        },
        {
          "indexed": false,
          "internalType": "uint256[]",
          "name": "values",
          "type": "uint256[]"
        }
      ],
      "name": "TransferBatch",
      "type": "event"
    },
    {
      "anonymous": false,
      "inputs": [
        {
          "indexed": true,
          "internalType": "address",
          "name": "operator",
          "type": "address"
        },
        {
          "indexed": true,
          "internalType": "address",
          "name": "from",
          "type": "address"
        },
        {
          "indexed": true,
          "internalType": "address",
          "name": "to",
          "type": "address"
        },
        {
          "indexed": false,
          "internalType": "uint256",
          "name": "id",
          "type": "uint256"
        },
        {
          "indexed": false,
          "internalType": "uint256",
          "name": "value",
          "type": "uint256"
        }
      ],
      "name": "TransferSingle",
      "type": "event"
    },
    {
      "anonymous": false,
      "inputs": [
        {
          "indexed": false,
          "internalType": "string",
          "name": "value",
          "type": "string"
        },
        {
          "indexed": true,
          "internalType": "uint256",
          "name": "id",
          "type": "uint256"
        }
      ],
      "name": "URI",
      "type": "event"
    },
    {
      "inputs": [],
      "name": "amount",
      "outputs": [
        {
          "internalType": "uint256",
          "name": "",
          "type": "uint256"
        }
      ],
      "stateMutability": "view",
      "type": "function"
    },
    {
      "inputs": [
        {
          "internalType": "address",
          "name": "account",
          "type": "address"
        },
        {
          "internalType": "uint256",
          "name": "id",
          "type": "uint256"
        }
      ],
      "name": "balanceOf",
      "outputs": [
        {
          "internalType": "uint256",
          "name": "",
          "type": "uint256"
        }
      ],
      "stateMutability": "view",
      "type": "function"
    },
    {
      "inputs": [
        {
          "internalType": "address[]",
          "name": "accounts",
          "type": "address[]"
        },
        {
          "internalType": "uint256[]",
          "name": "ids",
          "type": "uint256[]"
        }
      ],
      "name": "balanceOfBatch",
      "outputs": [
        {
          "internalType": "uint256[]",
          "name": "",
          "type": "uint256[]"
        }
      ],
      "stateMutability": "view",
      "type": "function"
    },
    {
      "inputs": [
        {
          "internalType": "uint256",
          "name": "newPrice",
          "type": "uint256"
        }
      ],
      "name": "changeAmount",
      "outputs": [],
      "stateMutability": "nonpayable",
      "type": "function"
    },
    {
      "inputs": [
        {
          "internalType": "address",
          "name": "account",
          "type": "address"
        },
        {
          "internalType": "address",
          "name": "operator",
          "type": "address"
        }
      ],
      "name": "isApprovedForAll",
      "outputs": [
        {
          "internalType": "bool",
          "name": "",
          "type": "bool"
        }
      ],
      "stateMutability": "view",
      "type": "function"
    },
    {
      "inputs": [
        {
          "internalType": "address",
          "name": "from",
          "type": "address"
        },
        {
          "internalType": "address",
          "name": "to",
          "type": "address"
        },
        {
          "internalType": "uint256[]",
          "name": "ids",
          "type": "uint256[]"
        },
        {
          "internalType": "uint256[]",
          "name": "amounts",
          "type": "uint256[]"
        },
        {
          "internalType": "bytes",
          "name": "data",
          "type": "bytes"
        }
      ],
      "name": "safeBatchTransferFrom",
      "outputs": [],
      "stateMutability": "nonpayable",
      "type": "function"
    },
    {
      "inputs": [
        {
          "internalType": "address",
          "name": "from",
          "type": "address"
        },
        {
          "internalType": "address",
          "name": "to",
          "type": "address"
        },
        {
          "internalType": "uint256",
          "name": "id",
          "type": "uint256"
        },
        {
          "internalType": "uint256",
          "name": "amount",
          "type": "uint256"
        },
        {
          "internalType": "bytes",
          "name": "data",
          "type": "bytes"
        }
      ],
      "name": "safeTransferFrom",
      "outputs": [],
      "stateMutability": "nonpayable",
      "type": "function"
    },
    {
      "inputs": [],
      "name": "seat",
      "outputs": [
        {
          "internalType": "uint256",
          "name": "",
          "type": "uint256"
        }
      ],
      "stateMutability": "view",
      "type": "function"
    },
    {
      "inputs": [
        {
          "internalType": "address",
          "name": "operator",
          "type": "address"
        },
        {
          "internalType": "bool",
          "name": "approved",
          "type": "bool"
        }
      ],
      "name": "setApprovalForAll",
      "outputs": [],
      "stateMutability": "nonpayable",
      "type": "function"
    },
    {
      "inputs": [
        {
          "internalType": "bytes4",
          "name": "interfaceId",
          "type": "bytes4"
        }
      ],
      "name": "supportsInterface",
      "outputs": [
        {
          "internalType": "bool",
          "name": "",
          "type": "bool"
        }
      ],
      "stateMutability": "view",
      "type": "function"
    },
    {
      "inputs": [],
      "name": "takeClass",
      "outputs": [],
      "stateMutability": "payable",
      "type": "function"
    },
    {
      "inputs": [
        {
          "internalType": "uint256",
          "name": "",
          "type": "uint256"
        }
      ],
      "name": "uri",
      "outputs": [
        {
          "internalType": "string",
          "name": "",
          "type": "string"
        }
      ],
      "stateMutability": "view",
      "type": "function"
    },
    {
      "inputs": [
        {
          "internalType": "uint256",
          "name": "amountToWithdraw",
          "type": "uint256"
        }
      ],
      "name": "withDrawMoney",
      "outputs": [],
      "stateMutability": "nonpayable",
      "type": "function"
    },
    {
      "stateMutability": "payable",
      "type": "receive"
    }
  ],
  "bytecode": "0x60806040523480156200001157600080fd5b506040516200333c3803806200333c833981810160405281019062000037919062000207565b8062000049816200009b60201b60201c565b5082600360006101000a81548173ffffffffffffffffffffffffffffffffffffffff021916908373ffffffffffffffffffffffffffffffffffffffff1602179055508160048190555050505062000458565b8060029080519060200190620000b3929190620000b7565b5050565b828054620000c59062000349565b90600052602060002090601f016020900481019282620000e9576000855562000135565b82601f106200010457805160ff191683800117855562000135565b8280016001018555821562000135579182015b828111156200013457825182559160200191906001019062000117565b5b50905062000144919062000148565b5090565b5b808211156200016357600081600090555060010162000149565b5090565b60006200017e62000178846200029f565b62000276565b9050828152602081018484840111156200019757600080fd5b620001a484828562000313565b509392505050565b600081519050620001bd8162000424565b92915050565b600082601f830112620001d557600080fd5b8151620001e784826020860162000167565b91505092915050565b60008151905062000201816200043e565b92915050565b6000806000606084860312156200021d57600080fd5b60006200022d86828701620001ac565b93505060206200024086828701620001f0565b925050604084015167ffffffffffffffff8111156200025e57600080fd5b6200026c86828701620001c3565b9150509250925092565b60006200028262000295565b90506200029082826200037f565b919050565b6000604051905090565b600067ffffffffffffffff821115620002bd57620002bc620003e4565b5b620002c88262000413565b9050602081019050919050565b6000620002e282620002e9565b9050919050565b600073ffffffffffffffffffffffffffffffffffffffff82169050919050565b6000819050919050565b60005b838110156200033357808201518184015260208101905062000316565b8381111562000343576000848401525b50505050565b600060028204905060018216806200036257607f821691505b60208210811415620003795762000378620003b5565b5b50919050565b6200038a8262000413565b810181811067ffffffffffffffff82111715620003ac57620003ab620003e4565b5b80604052505050565b7f4e487b7100000000000000000000000000000000000000000000000000000000600052602260045260246000fd5b7f4e487b7100000000000000000000000000000000000000000000000000000000600052604160045260246000fd5b6000601f19601f8301169050919050565b6200042f81620002d5565b81146200043b57600080fd5b50565b620004498162000309565b81146200045557600080fd5b50565b612ed480620004686000396000f3fe6080604052600436106100c55760003560e01c80637bf6df911161007f578063aa8c217c11610059578063aa8c217c14610294578063d5b01979146102bf578063e985e9c5146102c9578063f242432a14610306576100cc565b80637bf6df9114610217578063827cc45214610242578063a22cb4651461026b576100cc565b8062fdd58e146100d157806301ffc9a71461010e5780630e89341c1461014b5780632eb2c2d6146101885780634e1273f4146101b15780635c320516146101ee576100cc565b366100cc57005b600080fd5b3480156100dd57600080fd5b506100f860048036038101906100f39190611d2b565b61032f565b60405161010591906124fa565b60405180910390f35b34801561011a57600080fd5b5061013560048036038101906101309190611dd3565b6103f8565b60405161014291906122bd565b60405180910390f35b34801561015757600080fd5b50610172600480360381019061016d9190611e25565b6104da565b60405161017f91906122d8565b60405180910390f35b34801561019457600080fd5b506101af60048036038101906101aa9190611ba1565b61056e565b005b3480156101bd57600080fd5b506101d860048036038101906101d39190611d67565b61060f565b6040516101e59190612264565b60405180910390f35b3480156101fa57600080fd5b5061021560048036038101906102109190611e25565b6107c0565b005b34801561022357600080fd5b5061022c61085a565b60405161023991906124fa565b60405180910390f35b34801561024e57600080fd5b5061026960048036038101906102649190611e25565b61085f565b005b34801561027757600080fd5b50610292600480360381019061028d9190611cef565b6109ae565b005b3480156102a057600080fd5b506102a96109c4565b6040516102b691906124fa565b60405180910390f35b6102c76109ca565b005b3480156102d557600080fd5b506102f060048036038101906102eb9190611b65565b610a2d565b6040516102fd91906122bd565b60405180910390f35b34801561031257600080fd5b5061032d60048036038101906103289190611c60565b610ac1565b005b60008073ffffffffffffffffffffffffffffffffffffffff168373ffffffffffffffffffffffffffffffffffffffff1614156103a0576040517f08c379a00000000000000000000000000000000000000000000000000000000081526004016103979061233a565b60405180910390fd5b60008083815260200190815260200160002060008473ffffffffffffffffffffffffffffffffffffffff1673ffffffffffffffffffffffffffffffffffffffff16815260200190815260200160002054905092915050565b60007fd9b67a26000000000000000000000000000000000000000000000000000000007bffffffffffffffffffffffffffffffffffffffffffffffffffffffff1916827bffffffffffffffffffffffffffffffffffffffffffffffffffffffff191614806104c357507f0e89341c000000000000000000000000000000000000000000000000000000007bffffffffffffffffffffffffffffffffffffffffffffffffffffffff1916827bffffffffffffffffffffffffffffffffffffffffffffffffffffffff1916145b806104d357506104d282610b62565b5b9050919050565b6060600280546104e990612769565b80601f016020809104026020016040519081016040528092919081815260200182805461051590612769565b80156105625780601f1061053757610100808354040283529160200191610562565b820191906000526020600020905b81548152906001019060200180831161054557829003601f168201915b50505050509050919050565b610576610bcc565b73ffffffffffffffffffffffffffffffffffffffff168573ffffffffffffffffffffffffffffffffffffffff1614806105bc57506105bb856105b6610bcc565b610a2d565b5b6105fb576040517f08c379a00000000000000000000000000000000000000000000000000000000081526004016105f29061241a565b60405180910390fd5b6106088585858585610bd4565b5050505050565b60608151835114610655576040517f08c379a000000000000000000000000000000000000000000000000000000000815260040161064c9061247a565b60405180910390fd5b6000835167ffffffffffffffff811115610698577f4e487b7100000000000000000000000000000000000000000000000000000000600052604160045260246000fd5b6040519080825280602002602001820160405280156106c65781602001602082028036833780820191505090505b50905060005b84518110156107b55761075f858281518110610711577f4e487b7100000000000000000000000000000000000000000000000000000000600052603260045260246000fd5b6020026020010151858381518110610752577f4e487b7100000000000000000000000000000000000000000000000000000000600052603260045260246000fd5b602002602001015161032f565b828281518110610798577f4e487b7100000000000000000000000000000000000000000000000000000000600052603260045260246000fd5b602002602001018181525050806107ae906127cc565b90506106cc565b508091505092915050565b600360009054906101000a900473ffffffffffffffffffffffffffffffffffffffff1673ffffffffffffffffffffffffffffffffffffffff163373ffffffffffffffffffffffffffffffffffffffff1614610850576040517f08c379a00000000000000000000000000000000000000000000000000000000081526004016108479061239a565b60405180910390fd5b8060048190555050565b600081565b600360009054906101000a900473ffffffffffffffffffffffffffffffffffffffff1673ffffffffffffffffffffffffffffffffffffffff163373ffffffffffffffffffffffffffffffffffffffff16146108ef576040517f08c379a00000000000000000000000000000000000000000000000000000000081526004016108e69061235a565b60405180910390fd5b804711610931576040517f08c379a00000000000000000000000000000000000000000000000000000000081526004016109289061237a565b60405180910390fd5b60003373ffffffffffffffffffffffffffffffffffffffff166108fc839081150290604051600060405180830381858888f193505050509050806109aa576040517f08c379a00000000000000000000000000000000000000000000000000000000081526004016109a1906123da565b60405180910390fd5b5050565b6109c06109b9610bcc565b8383610f34565b5050565b60045481565b6004543411610a0e576040517f08c379a0000000000000000000000000000000000000000000000000000000008152600401610a05906124da565b60405180910390fd5b610a2b3360006001604051806020016040528060008152506110a1565b565b6000600160008473ffffffffffffffffffffffffffffffffffffffff1673ffffffffffffffffffffffffffffffffffffffff16815260200190815260200160002060008373ffffffffffffffffffffffffffffffffffffffff1673ffffffffffffffffffffffffffffffffffffffff16815260200190815260200160002060009054906101000a900460ff16905092915050565b610ac9610bcc565b73ffffffffffffffffffffffffffffffffffffffff168573ffffffffffffffffffffffffffffffffffffffff161480610b0f5750610b0e85610b09610bcc565b610a2d565b5b610b4e576040517f08c379a0000000000000000000000000000000000000000000000000000000008152600401610b45906123ba565b60405180910390fd5b610b5b8585858585611237565b5050505050565b60007f01ffc9a7000000000000000000000000000000000000000000000000000000007bffffffffffffffffffffffffffffffffffffffffffffffffffffffff1916827bffffffffffffffffffffffffffffffffffffffffffffffffffffffff1916149050919050565b600033905090565b8151835114610c18576040517f08c379a0000000000000000000000000000000000000000000000000000000008152600401610c0f9061249a565b60405180910390fd5b600073ffffffffffffffffffffffffffffffffffffffff168473ffffffffffffffffffffffffffffffffffffffff161415610c88576040517f08c379a0000000000000000000000000000000000000000000000000000000008152600401610c7f906123fa565b60405180910390fd5b6000610c92610bcc565b9050610ca28187878787876114b9565b60005b8451811015610e9f576000858281518110610ce9577f4e487b7100000000000000000000000000000000000000000000000000000000600052603260045260246000fd5b602002602001015190506000858381518110610d2e577f4e487b7100000000000000000000000000000000000000000000000000000000600052603260045260246000fd5b60200260200101519050600080600084815260200190815260200160002060008b73ffffffffffffffffffffffffffffffffffffffff1673ffffffffffffffffffffffffffffffffffffffff16815260200190815260200160002054905081811015610dcf576040517f08c379a0000000000000000000000000000000000000000000000000000000008152600401610dc69061243a565b60405180910390fd5b81810360008085815260200190815260200160002060008c73ffffffffffffffffffffffffffffffffffffffff1673ffffffffffffffffffffffffffffffffffffffff168152602001908152602001600020819055508160008085815260200190815260200160002060008b73ffffffffffffffffffffffffffffffffffffffff1673ffffffffffffffffffffffffffffffffffffffff1681526020019081526020016000206000828254610e84919061265d565b9250508190555050505080610e98906127cc565b9050610ca5565b508473ffffffffffffffffffffffffffffffffffffffff168673ffffffffffffffffffffffffffffffffffffffff168273ffffffffffffffffffffffffffffffffffffffff167f4a39dc06d4c0dbc64b70af90fd698a233a518aa5d07e595d983b8c0526c8f7fb8787604051610f16929190612286565b60405180910390a4610f2c8187878787876114c1565b505050505050565b8173ffffffffffffffffffffffffffffffffffffffff168373ffffffffffffffffffffffffffffffffffffffff161415610fa3576040517f08c379a0000000000000000000000000000000000000000000000000000000008152600401610f9a9061245a565b60405180910390fd5b80600160008573ffffffffffffffffffffffffffffffffffffffff1673ffffffffffffffffffffffffffffffffffffffff16815260200190815260200160002060008473ffffffffffffffffffffffffffffffffffffffff1673ffffffffffffffffffffffffffffffffffffffff16815260200190815260200160002060006101000a81548160ff0219169083151502179055508173ffffffffffffffffffffffffffffffffffffffff168373ffffffffffffffffffffffffffffffffffffffff167f17307eab39ab6107e8899845ad3d59bd9653f200f220920489ca2b5937696c318360405161109491906122bd565b60405180910390a3505050565b600073ffffffffffffffffffffffffffffffffffffffff168473ffffffffffffffffffffffffffffffffffffffff161415611111576040517f08c379a0000000000000000000000000000000000000000000000000000000008152600401611108906124ba565b60405180910390fd5b600061111b610bcc565b905061113c8160008761112d886116a8565b611136886116a8565b876114b9565b8260008086815260200190815260200160002060008773ffffffffffffffffffffffffffffffffffffffff1673ffffffffffffffffffffffffffffffffffffffff168152602001908152602001600020600082825461119b919061265d565b925050819055508473ffffffffffffffffffffffffffffffffffffffff16600073ffffffffffffffffffffffffffffffffffffffff168273ffffffffffffffffffffffffffffffffffffffff167fc3d58168c5ae7397731d063d5bbf3d657854427343f4c083240f7aacaa2d0f628787604051611219929190612515565b60405180910390a46112308160008787878761176e565b5050505050565b600073ffffffffffffffffffffffffffffffffffffffff168473ffffffffffffffffffffffffffffffffffffffff1614156112a7576040517f08c379a000000000000000000000000000000000000000000000000000000000815260040161129e906123fa565b60405180910390fd5b60006112b1610bcc565b90506112d18187876112c2886116a8565b6112cb886116a8565b876114b9565b600080600086815260200190815260200160002060008873ffffffffffffffffffffffffffffffffffffffff1673ffffffffffffffffffffffffffffffffffffffff16815260200190815260200160002054905083811015611368576040517f08c379a000000000000000000000000000000000000000000000000000000000815260040161135f9061243a565b60405180910390fd5b83810360008087815260200190815260200160002060008973ffffffffffffffffffffffffffffffffffffffff1673ffffffffffffffffffffffffffffffffffffffff168152602001908152602001600020819055508360008087815260200190815260200160002060008873ffffffffffffffffffffffffffffffffffffffff1673ffffffffffffffffffffffffffffffffffffffff168152602001908152602001600020600082825461141d919061265d565b925050819055508573ffffffffffffffffffffffffffffffffffffffff168773ffffffffffffffffffffffffffffffffffffffff168373ffffffffffffffffffffffffffffffffffffffff167fc3d58168c5ae7397731d063d5bbf3d657854427343f4c083240f7aacaa2d0f62888860405161149a929190612515565b60405180910390a46114b082888888888861176e565b50505050505050565b505050505050565b6114e08473ffffffffffffffffffffffffffffffffffffffff16611955565b156116a0578373ffffffffffffffffffffffffffffffffffffffff1663bc197c8187878686866040518663ffffffff1660e01b81526004016115269594939291906121a2565b602060405180830381600087803b15801561154057600080fd5b505af192505050801561157157506040513d601f19601f8201168201806040525081019061156e9190611dfc565b60015b6116175761157d6128a2565b806308c379a014156115da5750611592612dac565b8061159d57506115dc565b806040517f08c379a00000000000000000000000000000000000000000000000000000000081526004016115d191906122d8565b60405180910390fd5b505b6040517f08c379a000000000000000000000000000000000000000000000000000000000815260040161160e906122fa565b60405180910390fd5b63bc197c8160e01b7bffffffffffffffffffffffffffffffffffffffffffffffffffffffff1916817bffffffffffffffffffffffffffffffffffffffffffffffffffffffff19161461169e576040517f08c379a00000000000000000000000000000000000000000000000000000000081526004016116959061231a565b60405180910390fd5b505b505050505050565b60606000600167ffffffffffffffff8111156116ed577f4e487b7100000000000000000000000000000000000000000000000000000000600052604160045260246000fd5b60405190808252806020026020018201604052801561171b5781602001602082028036833780820191505090505b5090508281600081518110611759577f4e487b7100000000000000000000000000000000000000000000000000000000600052603260045260246000fd5b60200260200101818152505080915050919050565b61178d8473ffffffffffffffffffffffffffffffffffffffff16611955565b1561194d578373ffffffffffffffffffffffffffffffffffffffff1663f23a6e6187878686866040518663ffffffff1660e01b81526004016117d395949392919061220a565b602060405180830381600087803b1580156117ed57600080fd5b505af192505050801561181e57506040513d601f19601f8201168201806040525081019061181b9190611dfc565b60015b6118c45761182a6128a2565b806308c379a01415611887575061183f612dac565b8061184a5750611889565b806040517f08c379a000000000000000000000000000000000000000000000000000000000815260040161187e91906122d8565b60405180910390fd5b505b6040517f08c379a00000000000000000000000000000000000000000000000000000000081526004016118bb906122fa565b60405180910390fd5b63f23a6e6160e01b7bffffffffffffffffffffffffffffffffffffffffffffffffffffffff1916817bffffffffffffffffffffffffffffffffffffffffffffffffffffffff19161461194b576040517f08c379a00000000000000000000000000000000000000000000000000000000081526004016119429061231a565b60405180910390fd5b505b505050505050565b600080823b905060008111915050919050565b600061197b61197684612563565b61253e565b9050808382526020820190508285602086028201111561199a57600080fd5b60005b858110156119ca57816119b08882611a7e565b84526020840193506020830192505060018101905061199d565b5050509392505050565b60006119e76119e28461258f565b61253e565b90508083825260208201905082856020860282011115611a0657600080fd5b60005b85811015611a365781611a1c8882611b50565b845260208401935060208301925050600181019050611a09565b5050509392505050565b6000611a53611a4e846125bb565b61253e565b905082815260208101848484011115611a6b57600080fd5b611a76848285612727565b509392505050565b600081359050611a8d81612e42565b92915050565b600082601f830112611aa457600080fd5b8135611ab4848260208601611968565b91505092915050565b600082601f830112611ace57600080fd5b8135611ade8482602086016119d4565b91505092915050565b600081359050611af681612e59565b92915050565b600081359050611b0b81612e70565b92915050565b600081519050611b2081612e70565b92915050565b600082601f830112611b3757600080fd5b8135611b47848260208601611a40565b91505092915050565b600081359050611b5f81612e87565b92915050565b60008060408385031215611b7857600080fd5b6000611b8685828601611a7e565b9250506020611b9785828601611a7e565b9150509250929050565b600080600080600060a08688031215611bb957600080fd5b6000611bc788828901611a7e565b9550506020611bd888828901611a7e565b945050604086013567ffffffffffffffff811115611bf557600080fd5b611c0188828901611abd565b935050606086013567ffffffffffffffff811115611c1e57600080fd5b611c2a88828901611abd565b925050608086013567ffffffffffffffff811115611c4757600080fd5b611c5388828901611b26565b9150509295509295909350565b600080600080600060a08688031215611c7857600080fd5b6000611c8688828901611a7e565b9550506020611c9788828901611a7e565b9450506040611ca888828901611b50565b9350506060611cb988828901611b50565b925050608086013567ffffffffffffffff811115611cd657600080fd5b611ce288828901611b26565b9150509295509295909350565b60008060408385031215611d0257600080fd5b6000611d1085828601611a7e565b9250506020611d2185828601611ae7565b9150509250929050565b60008060408385031215611d3e57600080fd5b6000611d4c85828601611a7e565b9250506020611d5d85828601611b50565b9150509250929050565b60008060408385031215611d7a57600080fd5b600083013567ffffffffffffffff811115611d9457600080fd5b611da085828601611a93565b925050602083013567ffffffffffffffff811115611dbd57600080fd5b611dc985828601611abd565b9150509250929050565b600060208284031215611de557600080fd5b6000611df384828501611afc565b91505092915050565b600060208284031215611e0e57600080fd5b6000611e1c84828501611b11565b91505092915050565b600060208284031215611e3757600080fd5b6000611e4584828501611b50565b91505092915050565b6000611e5a8383612184565b60208301905092915050565b611e6f816126b3565b82525050565b6000611e80826125fc565b611e8a818561262a565b9350611e95836125ec565b8060005b83811015611ec6578151611ead8882611e4e565b9750611eb88361261d565b925050600181019050611e99565b5085935050505092915050565b611edc816126c5565b82525050565b6000611eed82612607565b611ef7818561263b565b9350611f07818560208601612736565b611f10816128c4565b840191505092915050565b6000611f2682612612565b611f30818561264c565b9350611f40818560208601612736565b611f49816128c4565b840191505092915050565b6000611f6160348361264c565b9150611f6c826128e2565b604082019050919050565b6000611f8460288361264c565b9150611f8f82612931565b604082019050919050565b6000611fa7602b8361264c565b9150611fb282612980565b604082019050919050565b6000611fca60228361264c565b9150611fd5826129cf565b604082019050919050565b6000611fed60228361264c565b9150611ff882612a1e565b604082019050919050565b600061201060278361264c565b915061201b82612a6d565b604082019050919050565b600061203360298361264c565b915061203e82612abc565b604082019050919050565b600061205660148361264c565b915061206182612b0b565b602082019050919050565b600061207960258361264c565b915061208482612b34565b604082019050919050565b600061209c60328361264c565b91506120a782612b83565b604082019050919050565b60006120bf602a8361264c565b91506120ca82612bd2565b604082019050919050565b60006120e260298361264c565b91506120ed82612c21565b604082019050919050565b600061210560298361264c565b915061211082612c70565b604082019050919050565b600061212860288361264c565b915061213382612cbf565b604082019050919050565b600061214b60218361264c565b915061215682612d0e565b604082019050919050565b600061216e60328361264c565b915061217982612d5d565b604082019050919050565b61218d8161271d565b82525050565b61219c8161271d565b82525050565b600060a0820190506121b76000830188611e66565b6121c46020830187611e66565b81810360408301526121d68186611e75565b905081810360608301526121ea8185611e75565b905081810360808301526121fe8184611ee2565b90509695505050505050565b600060a08201905061221f6000830188611e66565b61222c6020830187611e66565b6122396040830186612193565b6122466060830185612193565b81810360808301526122588184611ee2565b90509695505050505050565b6000602082019050818103600083015261227e8184611e75565b905092915050565b600060408201905081810360008301526122a08185611e75565b905081810360208301526122b48184611e75565b90509392505050565b60006020820190506122d26000830184611ed3565b92915050565b600060208201905081810360008301526122f28184611f1b565b905092915050565b6000602082019050818103600083015261231381611f54565b9050919050565b6000602082019050818103600083015261233381611f77565b9050919050565b6000602082019050818103600083015261235381611f9a565b9050919050565b6000602082019050818103600083015261237381611fbd565b9050919050565b6000602082019050818103600083015261239381611fe0565b9050919050565b600060208201905081810360008301526123b381612003565b9050919050565b600060208201905081810360008301526123d381612026565b9050919050565b600060208201905081810360008301526123f381612049565b9050919050565b600060208201905081810360008301526124138161206c565b9050919050565b600060208201905081810360008301526124338161208f565b9050919050565b60006020820190508181036000830152612453816120b2565b9050919050565b60006020820190508181036000830152612473816120d5565b9050919050565b60006020820190508181036000830152612493816120f8565b9050919050565b600060208201905081810360008301526124b38161211b565b9050919050565b600060208201905081810360008301526124d38161213e565b9050919050565b600060208201905081810360008301526124f381612161565b9050919050565b600060208201905061250f6000830184612193565b92915050565b600060408201905061252a6000830185612193565b6125376020830184612193565b9392505050565b6000612548612559565b9050612554828261279b565b919050565b6000604051905090565b600067ffffffffffffffff82111561257e5761257d612873565b5b602082029050602081019050919050565b600067ffffffffffffffff8211156125aa576125a9612873565b5b602082029050602081019050919050565b600067ffffffffffffffff8211156125d6576125d5612873565b5b6125df826128c4565b9050602081019050919050565b6000819050602082019050919050565b600081519050919050565b600081519050919050565b600081519050919050565b6000602082019050919050565b600082825260208201905092915050565b600082825260208201905092915050565b600082825260208201905092915050565b60006126688261271d565b91506126738361271d565b9250827fffffffffffffffffffffffffffffffffffffffffffffffffffffffffffffffff038211156126a8576126a7612815565b5b828201905092915050565b60006126be826126fd565b9050919050565b60008115159050919050565b60007fffffffff0000000000000000000000000000000000000000000000000000000082169050919050565b600073ffffffffffffffffffffffffffffffffffffffff82169050919050565b6000819050919050565b82818337600083830152505050565b60005b83811015612754578082015181840152602081019050612739565b83811115612763576000848401525b50505050565b6000600282049050600182168061278157607f821691505b6020821081141561279557612794612844565b5b50919050565b6127a4826128c4565b810181811067ffffffffffffffff821117156127c3576127c2612873565b5b80604052505050565b60006127d78261271d565b91507fffffffffffffffffffffffffffffffffffffffffffffffffffffffffffffffff82141561280a57612809612815565b5b600182019050919050565b7f4e487b7100000000000000000000000000000000000000000000000000000000600052601160045260246000fd5b7f4e487b7100000000000000000000000000000000000000000000000000000000600052602260045260246000fd5b7f4e487b7100000000000000000000000000000000000000000000000000000000600052604160045260246000fd5b600060033d11156128c15760046000803e6128be6000516128d5565b90505b90565b6000601f19601f8301169050919050565b60008160e01c9050919050565b7f455243313135353a207472616e7366657220746f206e6f6e204552433131353560008201527f526563656976657220696d706c656d656e746572000000000000000000000000602082015250565b7f455243313135353a204552433131353552656365697665722072656a6563746560008201527f6420746f6b656e73000000000000000000000000000000000000000000000000602082015250565b7f455243313135353a2062616c616e636520717565727920666f7220746865207a60008201527f65726f2061646472657373000000000000000000000000000000000000000000602082015250565b7f596f75206d75737420626520746865206f776e657220746f207769746864726160008201527f772e000000000000000000000000000000000000000000000000000000000000602082015250565b7f5468657265206973206e6f206d6f6e6579206f6e207468697320636f6e74726160008201527f6374000000000000000000000000000000000000000000000000000000000000602082015250565b7f596f75206d75737420626520746865206f776e657220746f206368616e67652060008201527f7072696365732e00000000000000000000000000000000000000000000000000602082015250565b7f455243313135353a2063616c6c6572206973206e6f74206f776e6572206e6f7260008201527f20617070726f7665640000000000000000000000000000000000000000000000602082015250565b7f4661696c656420746f2073656e64204574686572000000000000000000000000600082015250565b7f455243313135353a207472616e7366657220746f20746865207a65726f20616460008201527f6472657373000000000000000000000000000000000000000000000000000000602082015250565b7f455243313135353a207472616e736665722063616c6c6572206973206e6f742060008201527f6f776e6572206e6f7220617070726f7665640000000000000000000000000000602082015250565b7f455243313135353a20696e73756666696369656e742062616c616e636520666f60008201527f72207472616e7366657200000000000000000000000000000000000000000000602082015250565b7f455243313135353a2073657474696e6720617070726f76616c2073746174757360008201527f20666f722073656c660000000000000000000000000000000000000000000000602082015250565b7f455243313135353a206163636f756e747320616e6420696473206c656e67746860008201527f206d69736d617463680000000000000000000000000000000000000000000000602082015250565b7f455243313135353a2069647320616e6420616d6f756e7473206c656e6774682060008201527f6d69736d61746368000000000000000000000000000000000000000000000000602082015250565b7f455243313135353a206d696e7420746f20746865207a65726f2061646472657360008201527f7300000000000000000000000000000000000000000000000000000000000000602082015250565b7f596f75206d7573742070726f766964652065746820696e206f7264657220746f60008201527f206163636573732074686520636c617373210000000000000000000000000000602082015250565b600060443d1015612dbc57612e3f565b612dc4612559565b60043d036004823e80513d602482011167ffffffffffffffff82111715612dec575050612e3f565b808201805167ffffffffffffffff811115612e0a5750505050612e3f565b80602083010160043d038501811115612e27575050505050612e3f565b612e368260200185018661279b565b82955050505050505b90565b612e4b816126b3565b8114612e5657600080fd5b50565b612e62816126c5565b8114612e6d57600080fd5b50565b612e79816126d1565b8114612e8457600080fd5b50565b612e908161271d565b8114612e9b57600080fd5b5056fea2646970667358221220f3bb1935ea3715f4d7fbbf641f3676c1674ea296a162940d95fedf398f33f29e64736f6c63430008040033",
  "linkReferences": {},
  "deployedLinkReferences": {}
}